:020000040800F2
:100000009809002005010008311500085F14000858
:100010002D150008DD060008631700080000000029
:100020000000000000000000000000006115000852
:10003000E1060008000000003515000863150008FF
:100040001F0100081F0100081F0100081F01000810
:100050001F0100081F0100081F0100081F01000800
:100060001F0100081F0100081F0100081F010008F0
:100070001F0100081F0100081F0100081F010008E0
:100080001F0100081F0100081F0100081F010008D0
:100090001F0100081F0100081F0100081F010008C0
:1000A0001F0100081F0100081F0100081F010008B0
:1000B0001F0100081F0100081F0100081F010008A0
:1000C0001F0100081F0100081F0100081F01000890
:1000D0001F0100081F0100081F0100081F01000880
:1000E0001F0100081F0100081F010008DFF810D0E1
:1000F00000F064FA00480047B52C0008AFF3008018
:10010000980900200648804706480047FEE7FEE7BA
:10011000FEE7FEE7FEE7FEE7FEE7FEE7FEE7FEE7B7
:10012000D1150008ED000008202A04DB203A21FA4E
:1001300002F00021704721FA02F3D040C2F1200200
:100140009140084319467047D2B201E000F8012BF4
:10015000491EFBD270470022F6E710B513460A4647
:1001600004461946FFF7F0FF204610BD30B505469E
:100170002A460B4612F8010B13F8014B08B1A042B6
:10018000F8D01CB1002802D06D1CF1E7284630BD24
:10019000421C10F8011B0029FBD1801A704730B5B2
:1001A00005460020034600E05B1C934205D2EC5C50
:1001B000C85C201A01D1002CF6D130BD30B50B46F9
:1001C000014600202022012409E021FA02F59D4287
:1001D00005D303FA02F5491B04FA02F52844151E5B
:1001E000A2F10102F1DC30BD2DE9F05F05460020EF
:1001F00092469B4688460646814640241BE0284698
:10020000414647462246FFF78FFF53465A46C01ADB
:10021000914110D311461846224600F0E1F92D1AFB
:1002200067EB01084F4622460120002100F0D8F973
:1002300017EB00094E41201EA4F10104DFDC484603
:1002400031462A464346BDE8F09F2DE9FE4F8046E1
:1002500081EA0300C00F0C46009021F0004123F01A
:100260000045B8EB0200A94105D240462146904620
:100270001C460B46024623F00040104347D0270D92
:10028000C7F30A00C3F30A510290401A01904028B4
:100290006BDAC3F3130040F4801B0098924620B140
:1002A0000023D2EB030A63EB0B0B01985946C0F114
:1002B0004002504600F094F906460D465046594615
:1002C000019A00F09CF910EB08006141002487EAD4
:1002D000115284EAE7731A4340D0009A62B3019A3C
:1002E000012A4FEA075215DC001B61EB02014FF0B7
:1002F000004202EA0752CDE90042001C41F580119C
:1003000032462B4600F09CF903B0BDE8F08F404622
:100310002146F9E7001B61EB0201001C41F5801347
:1003200000185B412018A2F5001747EB030140EAD3
:10033000D570B6196D4111E06D084FEA360645EAF1
:10034000C0754FEA0752001B61EB0201001C41F52A
:10035000801149084FEA30000019514132462B46BE
:1003600003B0BDE8F04F00F05CB9009801224000F6
:100370000023D0EB020263EBE073009821464FEAC2
:10038000E074B8EB000061EB0401E9E783F000439F
:100390005BE781F0004158E72DE9FE4F81EA030455
:1003A00004F0004421F0004100944FF0000B23F0D2
:1003B000004350EA01045ED052EA03045BD0C3F369
:1003C0000A54C1F30A552C44A4F2F3340194A0FB5F
:1003D0000254C1F3130141F48011C3F3130343F436
:1003E000801301FB024400FB034E840A970A44EA8F
:1003F000815447EA8357A4FB076802958D0A05FBE1
:1004000007854FEA932C04FB0C542705029D4FEA05
:10041000065847EA1637B5EB08056EEB070C870E52
:10042000920E47EA811742EA8312A7FB0201B6EB5C
:100430000B0164EB00042B0D43EA0C335E1844EB14
:100440001C50DA465146E7FB0201C5F313044FEA9C
:100450000B3343EA14534FEA0432019C43EA060388
:10046000A4F10C040294009CCDE900B400F0E8F87B
:1004700003B0BDE8F08F00200146F9E72DE9F04D0B
:1004800081EA030404F0004B21F0004514464FF0CC
:10049000000A23F0004150EA050220D054EA01028C
:1004A0001DD0C5F30A570246C5F31303C1F3130069
:1004B000C1F30A5640F4801543F48013A7EB0608F5
:1004C000101BD64608F2FD3873EB050002D308F185
:1004D000010801E092185B41B8F1000F03DA002037
:1004E0000146BDE8F08D00204FF480110646844699
:1004F0000EE0171B73EB050705D3121B63EB050317
:1005000006434CEA010C49084FEA300092185B415F
:1005100050EA0107EDD152EA030012D082EA04004A
:1005200083EA0501084305D0101BAB4106D2012226
:10053000002306E000224FF0004302E06FF00102CA
:1005400053101AEB06004CEB085110EB0A0041EB7C
:100550000B01BDE8F04D00F064B8C1F30A52C1F3DD
:10056000130140F2FF3341F480119A4202DA002075
:100570000146704740F233439A42A2F2334202DC12
:100580005242FFF7D1BD00F02BB8000030B5041E79
:1005900071F1000404DB4FF00044404264EB0101C0
:1005A000141E73F1000405DB1C464FF00043524259
:1005B00063EB0403994208BF904230BD064C074DDF
:1005C00006E0E06840F0010394E807009847103423
:1005D000AC42F6D3FFF78EFD182F0008382F000825
:1005E000202A04DB203A00FA02F1002070479140F3
:1005F000C2F1200320FA03F3194390407047202AE8
:1006000006DBCB17203A41FA02F043EAE07306E03A
:1006100041FA02F3D040C2F120029140084319464A
:10062000704710B5141E73F1000408DA401C41F144
:10063000000192185B411A4301D120F0010010BD66
:100640002DE9F04D92469B4611B1B1FA81F202E0DC
:10065000B0FA80F220329046FFF7C2FF04460F4600
:1006600040EA0A0041EA0B0153465A46084313D0B8
:10067000114653EA010019D0C8F140025046FFF775
:1006800053FD05460E46504659464246FFF7A8FF21
:10069000084305D0012004E020463946BDE8F08D2E
:1006A0000020054346EAE0762C4337430A98630569
:1006B000E40AA0EB08000022FD0A44EA47540A308D
:1006C00002D500200146E9E7010510196941DDE97D
:1006D000084500196941BDE8F04DA2E700BFFEE7FB
:1006E000704772B600BFFEE770B5044600F0A6F989
:1006F00006462546681C10B104480078054400BF32
:1007000000F09CF9801BA842FAD370BD14000020B1
:100710002DE9F8470346002294466EE14FF00108A8
:1007200008FA02F4D1F8008008EA0400A0427DD162
:10073000DFF8DCA2D1F80480A8EB0A09D0453AD052
:1007400014DCB8F1030F50D009DCB8F1000F31D040
:10075000B8F1010F1CD0B8F1020F49D120E0B8F177
:10076000110F18D0B8F1120F42D11EE0B9F5881F51
:1007700025D006DCB9F5803F20D0B9F5801F37D1F0
:100780001AE0B9F5001F18D0B9F5041F30D117E0F1
:10079000D1F80CC02DE0D1F80C8008F1040C28E051
:1007A000D1F80C8008F1080C23E0D1F80C8008F196
:1007B0000C0C1EE000BF00BF00BF00BF00BF00BFA9
:1007C000D1F80880B8F1000F02D14FF0040C0BE013
:1007D000D1F80880B8F1010F03D14FF0080C1C616B
:1007E00002E04FF0080C5C6103E04FF0000C00E009
:1007F00000BF00BFFF2801D8984601E003F10408BC
:100800004646FF2802D84FEA820803E0A2F1080812
:100810004FEA88084746D6F800804FF00F0909FADA
:1008200007F928EA09080CFA07F900E088E048EA25
:100830000908C6F80080D1F8048008F08058B8F1A3
:10084000805F7DD100BFDFF8CC81D8F8188048F0F8
:100850000108DFF8C091C9F81880C846D8F8188098
:1008600008F00108CDF8008000BF00BF4FEAB9389A
:100870004FEA920958F829504FEA82784FEA1879DE
:100880004FF00F0808FA09F825EA0805DFF8888113
:10089000434502D14FF0000816E0DFF88081434560
:1008A00002D14FF001080FE0DFF87481434502D117
:1008B0004FF0020808E0DFF86C81434502D14FF0A9
:1008C000030801E04FF004084FEA82794FEA1979F2
:1008D00008FA09F848EA0505DFF84C814FEA920961
:1008E00048F82950D1F8048008F48018B8F5801F22
:1008F0000AD1DFF83881D8F8008048EA0008DFF82C
:100900002C91C9F8008009E0DFF82081D8F8008038
:1009100028EA0008DFF81491C9F80080D1F80480B3
:1009200008F40018B8F5001F10D1DFF8008108F1B5
:100930000408D8F8008048EA0008DFF8F09000E0EA
:100940005AE009F10409C9F800800DE0DFF8DC8005
:1009500008F10408D8F8008028EA0008DFF8CC90F5
:1009600009F10409C9F80080D1F8048008F40038BE
:10097000B8F5003F0ED1DFF8B480A8F10408D8F82C
:10098000008048EA0008DFF8A490A9F10409C9F83A
:1009900000800DE0DFF89480A8F10408D8F800800A
:1009A00028EA0008DFF88490A9F10409C9F800805A
:1009B000D1F8048008F48038B8F5803F0ED1DFF814
:1009C0006C80A8F10808D8F8008048EA0008DFF831
:1009D0005C90A9F10809C9F800800DE0DFF84C80AF
:1009E000A8F10808D8F8008028EA0008DFF83C9051
:1009F000A9F10809C9F80080521CD1F8008028FA32
:100A000002F8B8F1000F7FF489AEBDE8F887000066
:100A1000000011100010024000080140000C0140CD
:100A2000001001400014014008000140080401408A
:100A30000AB1016101E00B040361704701480068DD
:100A4000704700000C000020034800680349097843
:100A500008440149086070470C0000201400002081
:100A600010B50848006840F01000064908600320EF
:100A700000F098F80F2000F007F800F02BF80020A5
:100A800010BD00000020024070B504460E480078FA
:100A90004FF47A71B1FBF0F00C490968B1FBF0F545
:100AA000284600F0E9FB08B1012070BD102C07D2E8
:100AB00000222146501E00F037F80548046001E08E
:100AC0000120F2E70020F0E71400002018000020C9
:100AD0001000002008B500BF1148806940F00100F7
:100AE0000F4988610846806900F00100009000BF4E
:100AF00000BF00BF0846C06940F08050C86108468A
:100B0000C06900F08050009000BF00BF00BF0549E1
:100B1000486820F0E06040F00070486000BF08BD09
:100B200000100240000001402DE9F05F80460D46B4
:100B30001646002700F05CFE074639462A46334633
:100B400001F00700C0F1070ABAF1040F02D94FF013
:100B5000040A01E0C0F1070AD14600F1040ABAF123
:100B6000070F02D24FF0000A01E0A0F1030AD446B9
:100B70004FF0010A0AFA09FAAAF1010A0AEA020A7E
:100B80000AFA0CFA4FF0010B0BFA0CFBABF1010B5C
:100B90000BEA030B4AEA0B042146404600F030FE04
:100BA000BDE8F09F00BF00F00702064B19684FF642
:100BB000FF031940044B0B4343EA0221014B196028
:100BC00000BF70470CED00E00000FA0570B5044668
:100BD0000D460CB9012070BD5A48006800F00700AE
:100BE000A8420ED25748006820F007002843554914
:100BF00008600846006800F00700A84201D0012004
:100C0000E9E7207800F0020002281DD1207800F0EA
:100C10000400042805D14C48406840F4E0604A498B
:100C20004860207800F00800082805D14648406850
:100C300040F46050444948604348406820F0F00068
:100C4000A168084340494860207800F0010078B36B
:100C50006068012806D13C48006800F4003090B973
:100C60000120B8E76068022806D13748006800F024
:100C7000007040B90120AEE73348006800F0020080
:100C800008B90120A7E73048406820F003006168F8
:100C900008432D494860FFF7D1FE064609E0FFF7FB
:100CA000CDFE801B41F28831884202D9032092E7B1
:100CB00007E02548406800F00C006168B0EB810F48
:100CC000EDD12048006800F00700A8420ED91D4869
:100CD000006820F0070028431A49086008460068A9
:100CE00000F00700A84201D0012074E7207800F04E
:100CF0000400042807D11448406820F4E060E1684B
:100D0000084311494860207800F00800082808D1FD
:100D10000D48406820F46050216940EAC1000A494A
:100D2000486000F03FF808494968C1F30311074AD9
:100D3000515CC8400649086006480068FFF7A4FEF9
:100D4000002048E70020024000100240B32D0008B8
:100D500018000020100000200148006870470000C3
:100D60001800002000B5FFF7F7FF04494968C1F3F8
:100D70000221034A515CC84000BD0000001002403F
:100D8000C32D000800B5FFF7E7FF04494968C1F328
:100D9000C221034A515CC84000BD0000001002405F
:100DA000C32D000870B5002100220024002300207C
:100DB000134D696801F00C05F5B1042D02D0082D22
:100DC00019D101E00F4819E00F4DC1F38346AB5D27
:100DD00001F4803555B10A4D6D68C5F340450B4EA1
:100DE000725D084D5D43B5FBF2F402E0084D03FB74
:100DF00005F4204602E000BF024800BF00BF70BDFE
:100E00000010024000127A00A12D0008B12D000848
:100E100000093D00F8B504460CB90120F8BD207862
:100E200000F00100002878D0F848406800F00C007D
:100E300004280CD0F548406800F00C00082811D1B7
:100E4000F248406800F48030B0F5803F0AD1EF48A6
:100E5000006800F4003000285FD0606800285CD192
:100E60000120DBE700BF6068B0F5803F06D1E748AE
:100E7000006840F48030E549086028E0606858B9AF
:100E8000E248006820F48030E049086008460068C5
:100E900020F4802008601AE06068B0F5A02F0BD124
:100EA000DA48006840F48020D849086008460068A5
:100EB00040F4803008600AE0D448006820F48030B4
:100EC000D24908600846006820F48020086000BF0E
:100ED000606888B1FFF7B2FD054606E0FFF7AEFD9A
:100EE000401B642801D9032098E7C848006800F433
:100EF00000300028F2D010E0FFF7A0FD054606E024
:100F0000FFF79CFD401B642801D9032086E7BF48FA
:100F1000006800F400300028F2D1207800F00200D0
:100F2000022857D1B948406800F00C0050B1B748CA
:100F3000406800F00C00082818D1B448406800F45C
:100F4000803098B9B148006800F0020020B12069F3
:100F5000012801D0012061E7AC48006820F0F800CA
:100F6000616940EAC100A949086033E02069E8B13D
:100F70000120A7490860FFF761FD054606E0FFF77D
:100F80005DFD401B022801D9032047E79F48006808
:100F900000F002000028F2D09C48006820F0F80021
:100FA000616940EAC1009949086013E0002098494E
:100FB0000860FFF743FD054606E0FFF73FFD401BD5
:100FC000022801D9032029E79048006800F00200B8
:100FD0000028F2D1207800F0080008282DD1A0695F
:100FE000B8B101208B490860FFF728FD054606E0EF
:100FF000FFF724FD401B022801D903200EE7834898
:10100000406A00F002000028F2D0012000F094FABB
:1010100013E000207F490860FFF710FD054606E059
:10102000FFF70CFD401B022801D90320F6E67748A4
:10103000406A00F002000028F2D1207800F004009D
:10104000042873D100277148C06900F0805070B93E
:1010500000BF6E48C06940F080506C49C8610846C6
:10106000C06900F08050009000BF00BF01276A48AF
:10107000006800F48070B0B96748006840F4807080
:1010800065490860FFF7DAFC054606E0FFF7D6FC85
:10109000401B642801D90320C0E65F48006800F4C3
:1010A00080700028F2D000BFE068012806D15748C0
:1010B000006A40F001005549086227E0E06858B92D
:1010C0005248006A20F00100504908620846006A50
:1010D00020F00400086219E0E06805280BD14B48B5
:1010E000006A40F00400494908620846006A40F07E
:1010F000010008620AE04548006A20F00100434907
:1011000008620846006A20F00400086200BFE06838
:10111000A0B1FFF793FC054609E0FFF78FFC401BE9
:1011200041F28831884202D9032077E622E037482D
:10113000006A00F002000028EFD012E0FFF77EFC0A
:10114000054608E0FFF77AFC401B41F288318842EF
:1011500001D9032062E62D48006A00F00200002851
:10116000F0D1012F05D12948C06920F080502749CE
:10117000C86100BFE069C8B32448406800F00C00B3
:10118000082860D0E069022848D10020204908667C
:10119000FFF754FC054606E0FFF750FC401B022811
:1011A00001D903203AE61948006800F000700028D1
:1011B000F2D1206AB0F5803F07D11448406820F48E
:1011C0000030A168084311494860D4E90801084388
:1011D0000E49496821F4741108430C494860012004
:1011E0000B490866FFF72AFC054607E03DE0FFF7DC
:1011F00025FC401B022801D903200FE603480068A4
:1012000000F000700028F2D02FE000000010024033
:101210000000424280044242007000400020144915
:101220000866FFF70BFC054606E0FFF707FC401BCE
:10123000022801D90320F1E50E48006800F0007093
:101240000028F2D111E0E069012800D1E6E5094863
:10125000466806F48031206A814204D106F4701198
:10126000606A814201D00120D8E50020D6E5000067
:10127000000042420010024070B504462546681E38
:10128000B0F1807F01D301200FE0681E4FF0E02114
:1012900048610F214FF0FF3000F0B2FA00204FF00C
:1012A000E021886107200861002070BD10B5044668
:1012B0000CB9012010BDA06900B100E000BF94F896
:1012C000410028B9002084F84000204600F02AF8A8
:1012D000242084F841002068C06820F40050216870
:1012E000C860204600F076F92068006920F490403C
:1012F000216808612068406920F02A00216848615F
:101300002068C06840F400502168C8600020606414
:10131000202084F8410084F842000020606300BF70
:10132000C8E7000010B586B0044600200290039084
:10133000049005901A49206888422ED100BF1948B0
:10134000806940F48040174988610846806900F44C
:101350008040019000BF00BF00BF0846806940F098
:10136000040088610846806900F00400019000BF15
:1013700000BF48150290022003900320059002A9A7
:101380000948FFF7C5F94FF48060029000200390F0
:10139000049002A90448FFF7BBF906B010BD000095
:1013A0000038014000100240000801402DE9F84FCC
:1013B00004460E46174699464FF0000A94F841003D
:1013C00020284AD106B117B90120BDE8F88F0020C6
:1013D0006064212084F84100FFF730FB8246A78437
:1013E000E784A068B0F5805F04D1206910B90025BA
:1013F000B04602E035464FF000081BE0534600229D
:1014000080212046CDF8009000F062F908B1032059
:10141000DBE745B9B8F80000C0F308002168486070
:1014200008F1020803E02878216848606D1CE08C10
:10143000401EE084E08C0028E0D153460022402189
:101440002046CDF8009000F043F908B10320BCE736
:10145000202084F841000020B7E70220B5E700BF54
:10146000FEE7000000B585B00020019002900390D7
:10147000049000BF1D48806940F010001B4988613E
:101480000846806900F01000009000BF00BF00BF58
:101490000846806940F0200088610846806900F0B5
:1014A0002000009000BF00BF00BF0846806940F0E8
:1014B000040088610846806900F00400009000BFC5
:1014C00000BF00224FF400510948FFF7B1FA4FF472
:1014D000005001900120029000200390022004900F
:1014E00001A90348FFF714F905B000BD0010024040
:1014F0000010014010B50B480B4908604FF4E13073
:101500004860002108488160C16001610C2141618F
:1015100000218161C161FFF7C9FE08B1FFF7E1F861
:1015200010BD0000003801405400002000BFFEE75D
:1015300000BFFEE77047000008B508490968C90800
:101540004FF47A72B1FBF2F14143009100BF00BF4A
:1015500000994A1E00920029F9D108BD1800002008
:10156000704710B5FFF770FA10BD00B58FB0282195
:1015700005A8FEF7F0FD14216846FEF7ECFD0120FA
:101580000590000406900020079001200990022099
:101590000C90C1030D914FF4E0110E9105A8FFF7D7
:1015A00039FC08B1FFF79DF80F2000900220019050
:1015B000002002904FF480600390002004900221EC
:1015C0006846FFF703FB08B1FFF78BF80FB000BDCB
:1015D0007047000070B504462168096921F4405144
:1015E000E2681143226811612269A16811436269AE
:1015F00041EA02052168C96841F20C62914329431E
:101600002268D1602168496921F44071A2691143BF
:10161000226851612D4A2168914202D1FFF7B2FB45
:1016200001E0FFF79FFB00EBC00101EB00116268D6
:101630009200B1FBF2F100EBC00202EB0012636812
:101640009B00B2FBF3F26423B2FBF3F202EBC203A2
:1016500003EB0212A1EB8201322202EB01116422A0
:10166000B1FBF2F101F0F00100EBC00202EB00125D
:1016700063689B00B2FBF3F26423B2FBF3F201EB6D
:10168000021200EBC00101EB001163689B00B1FB8B
:10169000F3F100EBC00303EB00136668B600B3FB85
:1016A000F6F36426B3FBF6F303EBC30606EB031372
:1016B000A1EB8301322303EB01116423B1FBF3F1AE
:1016C00001F00F0111442268916070BD00380140A3
:1016D0002DE9F04104460D4617469846069E34E033
:1016E000701C88B32EB1FFF7A9F9A0EB0800B04237
:1016F0002BD900BF00BF21680C3151E8001F21F435
:10170000D07021680C3141E80002002AF3D100BFFB
:1017100000BF00BF2168143151E8001F21F0010013
:101720002168143141E80002002AF3D100BF2020D3
:1017300084F8410084F8420000BF002084F8400093
:1017400000BF0320BDE8F081FFE720680068284063
:10175000A84201D1012000E00020B842C0D0002002
:10176000F0E700BFFEE700000FB4054B10B503A97A
:10177000044A029800F02AF910BC5DF814FB00003E
:10178000D12B0008500000200FB47CB50C0009AD2F
:1017900001D0611E00E00021CDE90001064B6A4640
:1017A0002946089800F012F9002C02D0009A002176
:1017B00011707CBC5DF814FBD32000087CB50C00D4
:1017C0001D461646014601D0601E00E00020CDE90E
:1017D0000010064B6A462946304600F0F7F8002C08
:1017E00002D0009A002111707CBD0000D3200008B7
:1017F00002480068C0F30220704700000CED00E0D2
:1018000010B5002804DB0A07130E054A135406E03E
:101810000A07140E034A00F00F031B1FD45410BD17
:1018200000E400E018ED00E002E008C8121F08C163
:10183000002AFAD170477047002001E001C1121F51
:10184000002AFBD1704700002DE9FF5F82B0002124
:10185000DDE90430020DDDF840B0034318D044F652
:101860001050A2F2FF3242431514119801281FD0E4
:10187000A5EB0B00401C5FEA000A4FF000064E4F3C
:10188000DFF83891B046504615D5CAF1000413E090
:10189000119801244AA3012801D16FEA0B01029893
:1018A000119AC0E90031C0E9024206B0BDE8F09FDC
:1018B000CBF10000DFE704460021404A491842EB23
:1018C0000450CDE9001012E0E00707D032463B4655
:1018D00040464946FEF760FD8046894632463B4613
:1018E00010461946FEF758FD06460F466410002CB8
:1018F000EAD1DDE90401DDE90023BAF1000F06DADF
:10190000FEF74AFD42464B46FEF746FD05E0FEF770
:10191000B5FD42464B46FEF7B1FD04460E46002299
:10192000284BFEF733FE03D84FF0FF30014607E0A7
:101930000022254B20463146FEF787FCFEF70DFEC0
:10194000102409E0002C0ADB0A220023FEF74CFCDD
:10195000039B30321A55641E50EA0102F2D1641C16
:10196000039AC4F111031444119A012A03D00122ED
:1019700008430DD10AE0084304D000204FF0110BBA
:10198000119072E7A3EB0B056D1E0DE05B4504DDC6
:101990004FF0000205F1010504E003DA4FF0000208
:1019A000A5F10105002AECD002981199C0E9023195
:1019B000C0E9004579E70000000014400000F03F56
:1019C000300000000000F0430000E03F2DE9FF4F31
:1019D00095B09A46884606460025EEE1252877D13F
:1019E00000242746F94A0121039400E0044316F835
:1019F000013F203B01FA03F01042F7D130782A284A
:101A000011D06FF02F033078A0F13002092A16D8D8
:101A1000039A44F0020402EB820203EB42021044F8
:101A2000761C0390EFE758F8042B0392002A03DAA0
:101A3000504244F40054039044F00204761C307881
:101A40002E2816D116F8010F44F004042A280DD0D0
:101A50006FF02F023078A0F13003092B09D807EB83
:101A6000870302EB4303C718761CF3E758F8047B9F
:101A7000761C30786C280FD006DC4C2817D06828EC
:101A80000DD06A2814D104E0742810D07A280FD120
:101A90000DE044F400140AE044F4801401E044F43E
:101AA00040147278824202D104F58014761C761CB0
:101AB000307866280BD013DC582877D009DC002852
:101AC00075D04528F6D04628F4D047281AD193E19E
:101AD00018E0632835D0642879D0652812D18BE1CD
:101AE000702873D008DC6728F1D069286FD06E2881
:101AF0000DD06F2806D1ACE073282CD0752874D097
:101B0000782853D05246179990476D1C54E1C4F37E
:101B10000250022809D003280DD0D8F8001004285C
:101B20000DD00D6008F1040846E1D8F80010EA175E
:101B3000C1E90052F6E7D8F800100D80F2E70D7009
:101B4000F0E718F8041B8DF8001000208DF8010054
:101B5000EB46012003E058F804BB4FF0FF3061076B
:101B60004FF0000102D40DE009F101018946B942AC
:101B70000FDA8145F8DB1BF809100029F4D108E0E1
:101B800009F1010189468142FADB1BF8091000299D
:101B9000F6D103985346A0EB090721463846179A19
:101BA00000F080FA284400EB090507E044E008E172
:101BB0000DE01BF8010B524617999047B9F1010946
:101BC000F7D2534621463846179AF2E039E00A2107
:101BD000C4F302524FF0000B0091022A06D058F8CD
:101BE000040BC117032A09D00AE023E008F107001B
:101BF00020F00702F2E80201904605E000B2C117AA
:101C0000042A01D140B2C117002906DA0A46002190
:101C1000404261EB02012D2202E0220504D52B2275
:101C20008DF80420012203E0E20701D02022F7E72B
:101C3000914657E00A2100E010214FF0000B00917F
:101C40000BE010214FF0000B44F004040827009132
:101C500003E008204FF0000B0090C4F30252022A68
:101C600005D058F8040B0021032A08D008E008F139
:101C7000070020F00702F2E80201904603E080B27C
:101C8000042A00D1C0B24FF0000922072AD53278C9
:101C9000702A07D0DDF800C08CF0100C5CEA0B0C49
:101CA00005D00EE040228DF80420012208E050EA21
:101CB000010306D030238DF804308DF80520022270
:101CC0009146009B83F0080353EA0B030AD150EAC4
:101CD000010201D1620705D530228DF804204FF0B2
:101CE00001097F1E3278582A04D039A20C920CAA1E
:101CF00002920BE03BA2F9E75B46009AFEF774FA0A
:101D00000C9B9B5C029A521E0292137050EA0102D5
:101D1000F2D1029804A9081A00F1200B600702D53D
:101D200024F4803400E001275F4502DDA7EB0B00BF
:101D300000E0002000EB0B01009003984944401A9A
:101D40000390E00306D453462146179A039800F007
:101D5000A9F90544002706E001A85246C05D17997D
:101D600090476D1C7F1C4F45F6DBE0030CD55346B6
:101D70002146179A039800F095F9054404E03020B5
:101D80005246179990476D1C0099481E00900029F3
:101D9000F5DC08E00298029952460078491C02914D
:101DA000179990476D1CBBF10001ABF1010BF1DC01
:101DB0005BE100F065F90544761C307800287FF47B
:101DC0000DAE19B02846BDE8F08F000009280100CB
:101DD00030313233343536373839616263646566A1
:101DE0000000000030313233343536373839414263
:101DF0004344454600000000600700D4062708F170
:101E0000070020F00700F0E80223804603F0004CB2
:101E10005FEA0C0001D097A009E0200501D596A04B
:101E200005E0E00701D095A001E0AFF24C0013906F
:101E3000307823F0004365280CD006DC452809D013
:101E400046281DD047287FD13BE0662818D0672858
:101E50007AD136E00021112F01DB112000E0781C3F
:101E6000CDE9000104A90CA8FFF7EEFCDDE90D01A6
:101E70000C9A4FF0000B07F10109109200914EE00F
:101E80004FF000400097CDE9011004A90CA8FFF71E
:101E9000DBFCDDE90D020C9B0F994FF0000B914626
:101EA0001093009211B9791C00EB0109B7EB0900FE
:101EB00003D4C0F1FF3B07F10109A9EB0700019032
:101EC00042E0012F00DA01270021112F01DD11204E
:101ED00000E03846CDE9000104A90CA8FFF7B4FCE6
:101EE000DDE90D010C9A00914FF0000BB9461092FC
:101EF00021070FD4009A4A4503DA914601E0A9F17F
:101F00000109B9F1010F05DD109AA9F10101515C38
:101F10003029F4D0B84202DA10F1040F03DA0121BB
:101F2000CDE9011010E0002803DC8344A9EB000197
:101F300002E0411C494500DD8946A0EB0B00401C36
:101F400001904FF000400290200705D401984845C9
:101F500002DB4FF0FF30019000208DF84B0002981B
:101F60000DF14B07B0F1004F25D002200C902B2033
:101F70000D90029800280CDA404202902D200D901E
:101F800007E00A210298FEF719F93031029007F8AC
:101F9000011D0C99481E0C900029F2DC02980028C3
:101FA000EFD1791E0D980870307800F0200040F0D5
:101FB000450007F8020D11A8C01BC01D0290139820
:101FC000007800B1012000EB0901019801EBE071FC
:101FD000029801440398401A401E0390E00306D47F
:101FE00053462146179A039800F05CF8054413986D
:101FF000007818B15246179990476D1CE00323D51D
:1020000053462146179A039800F04CF805441BE00C
:10201000BBF1000F07DB0098584504DD10981799B5
:1020200010F80B0001E017993020524690470198B4
:102030000BF1010B401E05F10105019004D12E208A
:102040005246179990476D1CB9F10001A9F1010999
:10205000DEDC05E017F8010B5246179990476D1C1E
:102060000299481E02900029F4DC53462146179A33
:1020700003989EE62D0000002B00000020000000C9
:102080002DE9F041044600251E461746880404D475
:1020900005E039462020B0476D1C641EF9D528465E
:1020A000BDE8F0812DE9F041044600251E4690462A
:1020B000C80301D5302700E02027880404D505E0B7
:1020C00041463846B0476D1C641EF9D52846BDE828
:1020D000F0814A68002A06D00A68531C0B60107011
:1020E0004868401E4860704770B586B00546002DB0
:1020F0001CD126480068002811D14FF4EF70244904
:1021000024A229A3CDE90310CDE9013200900B46AA
:102110002EA235A1002000F095F800BFFEE74FF495
:10212000EF721B491BA0194B1B689847002405261A
:102130002F4890F8F00010B9304606B070BD00F09E
:102140006FFA00241BE004EB4411294831300844A5
:1021500090F82000012810D104EB441224483130BB
:102160001044411C1E222846FEF719F828B904EB3A
:1021700044111F483130465C03E0601CC4B2052C9A
:10218000E1DB00BF00F080FA3046D6E74C000020CB
:102190005D2E000874616720213D202828766F6934
:1021A00064202A29302900002825732920686173BA
:1021B00020617373657274206661696C6564206167
:1021C000742025733A256C642E0000002E2E5C6569
:1021D0006173796C6F676765725C7372635C656C61
:1021E0006F672E6300000000656C6F6700000000E1
:1021F0009C00002010B50024114890F8F000012840
:1022000001D1204610BD00F05FFA04460CB1204613
:10221000F8E7012000F018FA0020094981F8F300DE
:1022200081F8F400012000F0A5FB052000F05EFA23
:1022300000F0BAFA0120024981F8F0002046E1E7F7
:102240009C0000202DE9F04F8DB005460F469346C7
:1022500098463846FDF79CFF814600244FF0020A5D
:1022600000200B900C900790089009900A90052D83
:102270001CDDC1480068002811D14FF40F70BF4920
:10228000BFA2C6A3CDE90310CDE9013200900B46F1
:10229000CBA2D2A10020FFF7D5FF00BFFEE74FF48D
:1022A0000F72B649B6A0B44B1B689847CD4890F85A
:1022B000F10010B90DB0BDE8F08FCA480078A8420F
:1022C00004DB3846FFF710FFA84200DAF2E7C54901
:1022D000491C3846FDF74AFF00B9EBE718A80690FD
:1022E00000F09EF9BF4890F8F50078B1BE4801199A
:1022F000BEA2204600F0ECFB0444BD4850F8252067
:10230000B9480119204600F0E3FB044401212846A6
:1023100000F06AFC40B1B74850F82520B2480119D6
:10232000204600F0D5FB04440221284600F05CFC66
:10233000E8B1AD4801193A46204600F0C9FB044413
:10234000B9F10F0F0CD8C9F10F01202207A8FDF732
:10235000FBFEA548011907AA204600F0B9FB04447A
:10236000A1480119A4A2204600F0B2FB04441C219C
:10237000284600F039FC002852D09B4801199FA242
:10238000204600F0A5FB04440421284600F02CFC64
:10239000A8B100F095F90590934801192046059AD7
:1023A00000F096FB04441821284600F01DFC30B1D3
:1023B0008D48011990A2204600F08AFB04440821B0
:1023C000284600F011FCA8B100F072F9059086488B
:1023D00001192046059A00F07BFB04441021284691
:1023E00000F002FC30B18048011983A2204600F0C1
:1023F0006FFB04441021284600F0F6FB48B100F0C2
:102400005BF90590784801192046059A00F060FBB9
:102410000444754801197AA2204600F059FB04448F
:10242000E021284600F0E0FB00285CD06E4801194E
:1024300074A2204600F04CFB04442021284600F002
:10244000D3FBF8B1684801195A46204600F040FB1A
:1024500004444021284600F0C7FB38B16248011906
:1024600069A2204600F034FB04440BE0802128469A
:1024700000F0BAFB30B15C4801195FA2204600F0C1
:1024800027FB04448021284600F0AEFBC0B15FA2C8
:1024900005210BA8169BFFF777F9534801190BAAE2
:1024A000204600F015FB04444021284600F09CFB28
:1024B00030B14D48011950A2204600F009FB0444F8
:1024C0004021284600F090FB30B1474801194246B0
:1024D000204600F0FDFA0444434801194CA220466E
:1024E00000F0F6FA0444C4F580613F4A1019069BD7
:1024F000179AFFF763F9064600200690A019B0F579
:10250000806F03D8002E01DB344401E04FF4806477
:10251000201D5044B0F5806F04D94FF48064241F0F
:10252000A4EB0A042F4890F8200058B100202E494F
:1025300008552C4920312C48FDF718FE10B900F041
:10254000A3F8B7E6274890F8F50030B126480119FE
:1025500030A2204600F0BCFA0444234801192FA2FF
:10256000204600F0B5FA044421461F4800F0AEF8BA
:1025700000F08AF800BF9DE64C000020752E000890
:102580006C6576656C203C3D20454C4F475F4C5652
:102590004C5F564552424F53450000002825732991
:1025A0002068617320617373657274206661696C61
:1025B00065642061742025733A256C642E00000048
:1025C0002E2E5C656173796C6F676765725C7372E0
:1025D000635C656C6F672E6300000000656C6F675D
:1025E000000000009C000020940100201B5B000004
:1025F000340000201C000020200000005B000000D0
:102600005D200000280000003A000000256C6400F6
:10261000290000001B5B306D000000000D0A000067
:1026200010B5084890F8F20030B100F05DF80120D4
:10263000044981F8F40003E00120024981F8F30025
:1026400010BD00009C00002010B504460D4880F825
:10265000F24090F8F200A0B10A4890F8F40030B9C6
:10266000084890F8F30010B100F03EF809E0054882
:1026700090F8F40028B1034890F8F30008B900F08E
:1026800034F810BD9C00002010B5084890F8F20006
:1026900030B100F02AF80020044981F8F40003E08A
:1026A0000020024981F8F30010BD00009C000020CA
:1026B00000A070470000000000A07047000000006C
:1026C00000A07047000000000020704770B504466D
:1026D0000D462246294602A0FFF746F870BD0000CD
:1026E000252E2A73000000007047704710B586B091
:1026F0000446052C1CDD10480068002811D14FF459
:10270000AC700E490EA215A3CDE90310CDE901323C
:1027100000900B461AA221A10020FFF793FD00BFF5
:10272000FEE74FF4AC72054905A0034B1B689847C0
:102730001C48047006B010BD4C000020312E00086B
:102740006C6576656C203C3D20454C4F475F4C5690
:102750004C5F564552424F534500000028257329CF
:102760002068617320617373657274206661696C9F
:1027700065642061742025733A256C642E00000086
:102780002E2E5C656173796C6F676765725C73721E
:10279000635C656C6F672E6300000000656C6F679B
:1027A000000000009C00002010B5002400BF13E0D2
:1027B00004EB44120A491144481C1F21FDF7CBFCCD
:1027C000002104EB44120648815404EB44121044E7
:1027D00080F82010601CC4B2052CE9DB10BD00009D
:1027E000CD00002030B585B004460D46052C1CDD1B
:1027F00010480068002811D14FF49F700E490FA2B5
:1028000015A3CDE90310CDE9013200900B461BA2C0
:1028100021A10020FFF716FD00BFFEE74FF49F72D5
:10282000054906A0034B1B6898471D4840F82450F3
:1028300005B030BD4C000020142E00086C65766594
:102840006C203C3D20454C4F475F4C564C5F5645F5
:1028500052424F53450000002825732920686173B8
:1028600020617373657274206661696C65642061B0
:10287000742025733A256C642E0000002E2E5C65B2
:102880006173796C6F676765725C7372635C656CAA
:102890006F672E6300000000656C6F67000000002A
:1028A0007401002010B586B00446002C1ED0012C07
:1028B0001CD011480068002811D140F213100F49B4
:1028C0000FA219A3CDE90310CDE9013200900B4608
:1028D0001EA225A10020FFF7B5FC00BFFEE740F2D5
:1028E0001312064906A0044B1B689847204880F83D
:1028F000F14006B010BD00004C000020E02D0008A3
:1029000028656E61626C6564203D3D2066616C7374
:102910006529207C7C2028656E61626C6564203DA1
:102920003D2074727565290028257329206861731C
:1029300020617373657274206661696C65642061DF
:10294000742025733A256C642E0000002E2E5C65E1
:102950006173796C6F676765725C7372635C656CD9
:102960006F672E6300000000656C6F670000000059
:102970009C00002010B586B00446002C1ED0012C0F
:102980001CD011480068002811D140F21F100F49D7
:102990000FA219A3CDE90310CDE9013200900B4637
:1029A0001EA225A10020FFF74DFC00BFFEE740F26C
:1029B0001F12064906A0044B1B689847204880F860
:1029C000F54006B010BD00004C000020F82D0008B6
:1029D00028656E61626C6564203D3D2066616C73A4
:1029E0006529207C7C2028656E61626C6564203DD1
:1029F0003D2074727565290028257329206861734C
:102A000020617373657274206661696C656420610E
:102A1000742025733A256C642E0000002E2E5C6510
:102A20006173796C6F676765725C7372635C656C08
:102A30006F672E6300000000656C6F670000000088
:102A40009C0000200EB50B4890F8F00000B90EBDB8
:102A50000120FFF727FF08A009A1F422124BCDE9BE
:102A60000021029011A218A10320FFF7EBFB00BF89
:102A7000EDE700009C000020322E322E3939000094
:102A8000456173794C6F67676572205625732069BD
:102A90007320696E697469616C697A652073756306
:102AA000636573732E000000CB2D00082E2E5C652D
:102AB0006173796C6F676765725C7372635C656C78
:102AC0006F672E6300000000656C6F6700000000F8
:102AD000F0B585B006460D4614462746002D19D19F
:102AE0002448006880B92C20234924A224A3CDE9DE
:102AF0000310CDE9013200900B462AA231A100203B
:102B0000FFF7A0FB00BFFEE72C221B491BA0194BBF
:102B10001B689847002C19D11648006880B92D20F1
:102B200015492AA216A3CDE90310CDE90132009080
:102B30000B461CA223A10020FFF784FB00BFFEE789
:102B40002D220D4921A00B4B1B6898470AE0304607
:102B5000761CB0F5806F04D214F8010B05F8010B58
:102B600000E002E020780028F1D100BFE01B05B0B2
:102B7000F0BD00004C000020AD2E0008647374000E
:102B8000282573292068617320617373657274202E
:102B90006661696C65642061742025733A256C64F4
:102BA0002E0000002E2E5C656173796C6F6767657F
:102BB000725C7372635C656C6F675F7574696C736C
:102BC0002E630000656C6F67000000007372630085
:102BD00013B50C460A23012269460248FEF7E6FBBC
:102BE00000981CBD5400002030B585B004460D4649
:102BF000052C1CDD13480068002811D140F2DB20B1
:102C0000114912A218A3CDE90310CDE901320090B9
:102C10000B461EA224A10020FFF714FB00BFFEE715
:102C200040F2DB22084909A0064B1B689847204860
:102C300050F82400284010B1012005B030BD00201C
:102C4000FBE700004C000020812E00086C657665D3
:102C50006C203C3D20454C4F475F4C564C5F5645E1
:102C600052424F53450000002825732920686173A4
:102C700020617373657274206661696C656420619C
:102C8000742025733A256C642E0000002E2E5C659E
:102C90006173796C6F676765725C7372635C656C96
:102CA0006F672E6300000000656C6F670000000016
:102CB000740100201CB5FDF7D3FEFEF756FCFEF7AD
:102CC000D1FBFEF717FC00211D48AFF30080FFF792
:102CD00091FAFF210020FFF785FDFFF7B3FE19A051
:102CE00078211D4B1DA2CDE9001021A10420FFF782
:102CF000A9FA24E064230A221F492048FEF756FB64
:102D000000224FF400511E48FDF792FEBE23092217
:102D10001CA11A48FEF74AFB4FF4FA70FDF7E4FCD9
:102D2000012251031648FDF783FEB423082218A19F
:102D30001248FEF73BFB4FF4FA60FDF7D5FCD9E7EC
:102D400050000020C8D5D6BEB9A6C4DCB3F5CABCB5
:102D5000BBAFB3C9B9A600009C2D00082E2E2F438F
:102D60006F72652F5372632F6D61696E2E63000061
:102D70004D61696E0000000000000020540000203A
:102D8000001001404C45445F4F46460D0A000000CC
:102D90004C45445F4F4E0D0A000000006D61696EA6
:102DA0000002030405060708090A0B0C0D0E0F109C
:102DB00010010200000000000000000102030406F0
:102DC0000708090000000001020304656C6F675FDB
:102DD000737461727400656C6F675F73746F7000F9
:102DE000656C6F675F7365745F6F75747075745F22
:102DF000656E61626C656400656C6F675F736574B6
:102E00005F746578745F636F6C6F725F656E61622B
:102E10006C656400656C6F675F7365745F666D7485
:102E200000656C6F675F7365745F66696C7465726B
:102E300000656C6F675F7365745F66696C7465725B
:102E40005F6C766C00656C6F675F7365745F666955
:102E50006C7465725F7461675F6C766C00656C6F33
:102E6000675F6765745F66696C7465725F746167DC
:102E70005F6C766C00656C6F675F6F7574707574EE
:102E8000006765745F666D745F656E61626C656432
:102E900000656C6F675F66696E645F6C766C006579
:102EA0006C6F675F66696E645F74616700656C6F05
:102EB000675F73747263707900656C6F675F6370CE
:102EC000796C6E00656C6F675F6D656D637079001E
:102ED000412F0000442F0000452F0000492F000023
:102EE000562F0000572F000033313B32326D000067
:102EF00033323B32326D000033333B32326D0000EF
:102F000033343B32326D000033353B32326D0000DA
:102F100033363B32326D0000382F000800000020AD
:102F200054000000281800088C2F000854000020CE
:102F300044090000381800080D0A6B61697368695C
:102F40000D0A000000000000100000000100000059
:102F50000024F400D02E0008D82E0008E42E00082B
:102F6000DC2E0008D42E0008E02E0008082F0008F0
:102F7000E82E0008F82E0008102F0008F02E000898
:0C2F8000002F000800000000000000000E
:04000005080000ED02
:00000001FF
