:020000040800F2
:10000000B82300209D010008A9230008AB210008A7
:10001000A5230008ED0B0008D5260008000000000D
:1000200000000000000000000000000005010008C2
:10003000AF0D00080000000049010008D5230008AA
:10004000B7010008B7010008B7010008B7010008B0
:10005000B7010008B7010008B7010008B7010008A0
:10006000B7010008B7010008B7010008B701000890
:10007000B7010008B7010008B7010008B701000880
:10008000B7010008B7010008B7010008B701000870
:10009000B7010008B7010008B7010008B701000860
:1000A000B701000871240008B7010008B701000873
:1000B000B7010008B7010008B7010008B701000840
:1000C000B7010008B7010008B7010008B701000830
:1000D000B7010008B7010008B7010008B701000820
:1000E000B7010008B7010008B7010008DFF810D019
:1000F00000F0CAFA00480047ED3C0008AFF300806A
:10010000B8230020224B19680868B0E8F00F80F38C
:100110000988BFF36F8F4FF0000080F311884EF015
:100120000D0E70470000000006480068006880F36C
:10013000088862B661B6BFF34F8FBFF36F8F00DFE1
:1001400000BF00BF08ED00E0EFF30980BFF36F8F41
:100150000F4B1A6820E9F00F106008B54FF05000FF
:1001600080F31188BFF34F8FBFF36F8F05F012F943
:100170004FF0000080F31188BDE808401968086856
:10018000B0E8F00F80F30988BFF36F8F704700BFAE
:1001900020000020EFF305807047000006488047EC
:1001A00006480047FEE7FEE7FEE7FEE7FEE7FEE75C
:1001B000FEE7FEE7FEE7FEE76F240008ED0000081B
:1001C000202A04DB203A21FA02F00021704721FAAC
:1001D00002F3D040C2F12002914008431946704713
:1001E00040EA01039B0703D009E008C9121F08C0B9
:1001F000042AFAD203E011F8013B00F8013B521E39
:10020000F9D27047D2B201E000F8012B491EFBD2AF
:1002100070470022F6E710B513460A460446194611
:10022000FFF7F0FF204610BD30B505462A460B46C5
:1002300012F8010B13F8014B08B1A042F8D01CB121
:10024000002802D06D1CF1E7284630BD421C10F892
:10025000011B0029FBD1801A7047034611F8012BBE
:1002600000F8012B002AF9D11846704730B5054631
:100270000020034600E05B1C934205D2EC5CC85CA6
:10028000201A01D1002CF6D130BD30B50B46014605
:1002900000202022012409E021FA02F59D4205D325
:1002A00003FA02F5491B04FA02F52844151EA2F1CF
:1002B0000102F1DC30BD2DE9F05F054600209246D9
:1002C0009B4688460646814640241BE02846414618
:1002D00047462246FFF774FF53465A46C01A9141DB
:1002E00010D311461846224600F0E0F92D1A67EBAC
:1002F00001084F4622460120002100F0D7F917EBF4
:1003000000094E41201EA4F10104DFDC48463146BD
:100310002A464346BDE8F09F2DE9FE4F804681EA1C
:100320000300C00F0C46009021F0004123F000456F
:10033000B8EB0200A94105D24046214690461C4632
:100340000B46024623F00040104347D0270DC7F369
:100350000A00C3F30A510290401A019040286BDA58
:10036000C3F3130040F4801B0098924620B1002391
:10037000D2EB030A63EB0B0B01985946C0F1400224
:10038000504600F093F906460D4650465946019AEC
:1003900000F09BF910EB08006141002487EA11523C
:1003A00084EAE7731A4340D0009A62B3019A012AA3
:1003B0004FEA075215DC001B61EB02014FF00042CF
:1003C00002EA0752CDE90042001C41F58011324695
:1003D0002B4600F09BF903B0BDE8F08F4046214664
:1003E000F9E7001B61EB0201001C41F580130018C6
:1003F0005B412018A2F5001747EB030140EAD570D6
:10040000B6196D4111E06D084FEA360645EAC07530
:100410004FEA0752001B61EB0201001C41F58011FD
:1004200049084FEA30000019514132462B4603B0CB
:10043000BDE8F04F00F05BB90098012240000023B6
:10044000D0EB020263EBE073009821464FEAE074C0
:10045000B8EB000061EB0401E9E783F000435BE7E0
:1004600081F0004158E72DE9FE4F81EA030404F0D2
:10047000004421F0004100944FF0000B23F00043B2
:1004800050EA01045ED052EA03045BD0C3F30A547D
:10049000C1F30A552C44A4F2F3340194A0FB025496
:1004A000C1F3130141F48011C3F3130343F4801328
:1004B00001FB024400FB034E840A970A44EA81547C
:1004C00047EA8357A4FB076802958D0A05FB078559
:1004D0004FEA932C04FB0C542705029D4FEA065863
:1004E00047EA1637B5EB08056EEB070C870E920E40
:1004F00047EA811742EA8312A7FB0201B6EB0B0120
:1005000064EB00042B0D43EA0C335E1844EB1C50E3
:10051000DA465146E7FB0201C5F313044FEA0B33F9
:1005200043EA14534FEA0432019C43EA0603A4F160
:100530000C040294009CCDE900B400F0E7F803B08D
:10054000BDE8F08F00200146F9E72DE9F04D81EA82
:10055000030404F0004B21F0004514464FF0000A5C
:1005600023F0004150EA050220D054EA01021DD0D8
:10057000C5F30A570246C5F31303C1F31300C1F3D1
:100580000A5640F4801543F48013A7EB0608101BAD
:10059000D64608F2FD3873EB050002D308F10108D6
:1005A00001E092185B41B8F1000F03DA0020014628
:1005B000BDE8F08D00204FF48011064684460EE021
:1005C000171B73EB050705D3121B63EB05030643EB
:1005D0004CEA010C49084FEA300092185B4150EA9E
:1005E0000107EDD152EA030012D082EA040083EA47
:1005F0000501084305D0101BAB4106D201220023A0
:1006000006E000224FF0004302E06FF001025310B9
:100610001AEB06004CEB085110EB0A0041EB0B0102
:10062000BDE8F04D00F063B8C1F30A52C1F3130105
:1006300040F2FF3341F480119A4202DA0020014671
:10064000704740F233439A42A2F2334202DC5242F4
:10065000FFF7B6BD00F02AB830B5041E71F10004F2
:1006600004DB4FF00044404264EB0101141E73F1BF
:10067000000405DB1C464FF00043524263EB0403C9
:10068000994208BF904230BD064C074D06E0E06835
:1006900040F0010394E8070098471034AC42F6D3C9
:1006A000FFF728FD3C6300085C630008202A04DB98
:1006B000203A00FA02F1002070479140C2F1200375
:1006C00020FA03F3194390407047202A06DBCB172A
:1006D000203A41FA02F043EAE07306E041FA02F3FD
:1006E000D040C2F12002914008431946704710B52E
:1006F000141E73F1000408DA401C41F10001921845
:100700005B411A4301D120F0010010BD2DE9F04DED
:1007100092469B4611B1B1FA81F202E0B0FA80F242
:1007200020329046FFF7C2FF04460F4640EA0A0017
:1007300041EA0B0153465A46084313D0114653EA87
:10074000010019D0C8F140025046FFF739FD0546B7
:100750000E46504659464246FFF7A8FF084305D0CB
:10076000012004E020463946BDE8F08D0020054315
:1007700046EAE0762C4337430A986305E40AA0EB87
:1007800008000022FD0A44EA47540A3002D500203E
:100790000146E9E7010510196941DDE9084500193D
:1007A0006941BDE8F04DA2E786B005F073FA059007
:1007B00000BF1349481C00F0CEFA80B910484078B9
:1007C0000F4909780FA29B23CDE90032CDE9021031
:1007D000134B14A219A1032002F050FD09E019A047
:1007E0009F210F4B0FA2CDE9001014A1012002F0B0
:1007F00045FD4FF47A7105A804F09AFBD9E7000093
:1008000000000020526561644F6B2C68756D203DBF
:100810002025642C54656D70203D2025640A00005D
:10082000946100082E2E2F436F72652F5372632F31
:100830006672656572746F732E63000052544F5375
:1008400000000000526561644572726F72210A00F7
:100850002DE9F043D7B0814605F01CFA8046744874
:100860000568012605273B4632464EA9284604F076
:100870002DFC04F011FA6FA0D921714B71A2CDE9C2
:10088000001076A1002002F0F9FC76A1DA224F9840
:100890006B4BCDE9002102906AA270A1032002F007
:1008A000EDFC50A876A1DB22654BCDE9002102903A
:1008B00064A26AA1032002F0E1FC9DF8440177A143
:1008C000DC225F4BCDE9002102905EA263A10320F0
:1008D00002F0D4FC78A1DD225298594BCDE90021D9
:1008E000029058A25DA1032002F0C8FCBDF8580197
:1008F00078A1DE22524BCDE90021029051A257A1EE
:10090000032002F0BBFC05F09DF9054679A0E32128
:100910004B4B4CA2CDE9001050A1002002F0AEFCE0
:10092000284604F0FFF8044677A0E421444B45A292
:10093000CDE90104009149A1032002F09FFC3C484D
:10094000006804F0EFF8044675A0E5213C4B3DA299
:10095000CDE90104009141A1032002F08FFC76480B
:10096000006804F0DFF8044674A0E621344B35A299
:10097000CDE90104009139A1032002F07FFC754804
:10098000006804F0CFF8044673A0E7212C4B2DA299
:10099000CDE90104009131A1032002F06FFC74A0A5
:1009A000EB21274B27A2CDE900102CA1002002F05B
:1009B00065FC04F0B1F8044671A0EC21204B21A2A3
:1009C000CDE90104009125A1032002F057FC03A802
:1009D00004F0CAFB03A871A1F022194BCDE9002154
:1009E000029018A21DA1032002F048FC04F07EF939
:1009F000002409E04FF400516C4800F09FFB642094
:100A000003F0BCF9601CC4B20A2CF3DB68A040F20E
:100A100001110B4B0BA2CDE9001010A1002002F038
:100A20002DFC002004F0EEFA57B0BDE8F083000082
:100A3000040000205461736B5F496E666F00000014
:100A4000A36100082E2E2F436F72652F5372632F00
:100A50006672656572746F732E63000052544F5353
:100A6000000000005461736B204E616D65203A20D8
:100A7000202020202020202020202025730000007E
:100A80007461736B204E756D6265723A2020202070
:100A90002020202020202025640000005461736B5A
:100AA0002053746174653A202020202020202020CB
:100AB00020202025640000005461736B205072696F
:100AC0006F726974793A2020202020202020202570
:100AD00064000000537461636B20486967682057A5
:100AE00061746572204D61726B3A20256428576FDE
:100AF00072642900537461636B4869676857617455
:100B000065724D61726B3A0049646C652074617363
:100B10006B203D2020202020202020256400000084
:100B20005461736B5F446874313148616E646C6505
:100B3000203D202564000000080000205461736BF4
:100B40005F4C454448616E646C65203D2020202543
:100B5000640000000C0000205461736B5F496E66F6
:100B60006F48616E646C65203D20202564000000A4
:100B70004B65726E656C20496E666F3A000000002E
:100B800075785461736B4765744E756D6265724F0D
:100B9000665461736B73203D202564005461736B50
:100BA000204C6973743A2573000000000010014066
:100BB0005461736B5F756172742069732064656C36
:100BC000657465642100000008B505F063F80090C5
:100BD00000BF4FF40051044800F0B0FA4FF4FA712E
:100BE000684604F0A5F9F4E70010014000BFFEE7F5
:100BF00010B5002400F02AF804E0601CC4B2012003
:100C000000F0D6F84FF400710F4800F08FFA08B1E9
:100C1000642CF2DB642C01DB012010BD002404E015
:100C2000601CC4B2012000F0C3F84FF40071064804
:100C300000F07CFA08B9642CF2DB642C01DB0120A3
:100C4000EBE70020E9E70000000C01401FB50020A1
:100C500000900190029003904FF4007000900020EB
:100C60000190012002906946014800F0CFF81FBDB5
:100C7000000C01401FB500200090019002900390ED
:100C800000224FF40071084800F062FA4FF400703F
:100C900000900120019002900220039069460248D2
:100CA00000F0B4F81FBD0000000C014010B5FFF7C4
:100CB000E1FF00224FF40071074800F049FA1420C8
:100CC00000F090F801225102034800F041FA1E2082
:100CD00000F06EF810BD0000000C014010B504E0FB
:100CE000601CC4B2012000F063F84FF40071114899
:100CF00000F01CFA08B1642CF2DB002404E0601C54
:100D0000C4B2012000F054F84FF40071094800F01B
:100D10000DFA08B9642CF2DB282000F049F84FF4F2
:100D20000071044800F002FA08B1012010BD002053
:100D3000FCE70000000C014070B50024002506E02F
:100D40006006040EFFF7CAFF0443681CC5B2082DF5
:100D5000F6DB204670BD7CB505460E46FFF7A6FFC4
:100D6000FFF746FFF8B9002405E0FFF7E5FF0DF8AF
:100D70000400601CC4B2052CF7DB9DF800009DF850
:100D8000011008449DF8021008449DF8031008441F
:100D90009DF80410884208D19DF8000030709DF83D
:100DA0000200287001E001207CBD0020FCE77047B4
:100DB00010B504460020084909684862064800F05A
:100DC000EFFE00BF04480068406AA042FAD902481A
:100DD00000F058FF10BD0000D000002072B600BF28
:100DE000FEE7000070B5044600F0B8F90646254657
:100DF000681C10B104480078054400BF00F0AEF94B
:100E0000801BA842FAD370BD180000202DE9F847D6
:100E10000346002294466EE14FF0010808FA02F4FE
:100E2000D1F8008008EA0400A0427DD1DFF8DCA2FE
:100E3000D1F80480A8EB0A09D0453AD014DCB8F107
:100E4000030F50D009DCB8F1000F31D0B8F1010F19
:100E50001CD0B8F1020F49D120E0B8F1110F18D021
:100E6000B8F1120F42D11EE0B9F5881F25D006DC7B
:100E7000B9F5803F20D0B9F5801F37D11AE0B9F518
:100E8000001F18D0B9F5041F30D117E0D1F80CC0FD
:100E90002DE0D1F80C8008F1040C28E0D1F80C808A
:100EA00008F1080C23E0D1F80C8008F10C0C1EE0CE
:100EB00000BF00BF00BF00BF00BF00BFD1F8088067
:100EC000B8F1000F02D14FF0040C0BE0D1F808800C
:100ED000B8F1010F03D14FF0080C1C6102E04FF094
:100EE000080C5C6103E04FF0000C00E000BF00BFA5
:100EF000FF2801D8984601E003F104084646FF2880
:100F000002D84FEA820803E0A2F108084FEA8808F5
:100F10004746D6F800804FF00F0909FA07F928EA8A
:100F200009080CFA07F900E088E048EA0908C6F861
:100F30000080D1F8048008F08058B8F1805F7DD13E
:100F400000BFDFF8CC81D8F8188048F00108DFF83E
:100F5000C091C9F81880C846D8F8188008F0010870
:100F6000CDF8008000BF00BF4FEAB9384FEA9209C0
:100F700058F829504FEA82784FEA18794FF00F0855
:100F800008FA09F825EA0805DFF88881434502D107
:100F90004FF0000816E0DFF88081434502D14FF0A2
:100FA00001080FE0DFF87481434502D14FF00208D9
:100FB00008E0DFF86C81434502D14FF0030801E0FF
:100FC0004FF004084FEA82794FEA197908FA09F8D4
:100FD00048EA0505DFF84C814FEA920948F82950A4
:100FE000D1F8048008F48038B8F5803F0AD1DFF8E2
:100FF0003881D8F8008048EA0008DFF82C91C9F859
:10100000008009E0DFF82081D8F8008028EA000895
:10101000DFF81491C9F80080D1F8048008F4003892
:10102000B8F5003F10D1DFF8008108F10408D8F8C6
:10103000008048EA0008DFF8F09000E05AE009F18B
:101040000409C9F800800DE0DFF8DC8008F104082D
:10105000D8F8008028EA0008DFF8CC9009F10409EC
:10106000C9F80080D1F8048008F48018B8F5801F12
:101070000ED1DFF8B48008F10808D8F8008048EAFB
:101080000008DFF8A49009F10809C9F800800DE014
:10109000DFF8948008F10808D8F8008028EA0008F2
:1010A000DFF8849009F10809C9F80080D1F80480BC
:1010B00008F40018B8F5001F0ED1DFF86C8008F1B5
:1010C0000C08D8F8008048EA0008DFF85C9009F1C5
:1010D0000C09C9F800800DE0DFF84C8008F10C081D
:1010E000D8F8008028EA0008DFF83C9009F10C09E4
:1010F000C9F80080521CD1F8008028FA02F8B8F133
:10110000000F7FF489AEBDE8F887000000001110E1
:101110000010024000080140000C01400010014096
:101120000014014008000140000401400246936899
:101130000B400BB1012000E00020704710B5C268E1
:1011400021EA020302EA010443EA0443036110BDF9
:101150000AB1016101E00B040361704701480068B6
:101160007047000010000020034800680349097818
:101170000844014908607047100000201800002052
:1011800010B50848006840F01000064908600320C8
:1011900000F0D8F8002000F007F800F055F8002023
:1011A00010BD000000200240F0B587B004460026C4
:1011B0000027002500BF1F48806940F400601D49DA
:1011C00088610846806900F40060009000BF00BF9D
:1011D00001A902A800F090F900F0C6F906461648E9
:1011E000B6FBF0F0471E15481549086040F2E7319C
:1011F0001348C1604760002101618160816100F096
:1012000083FC054695B90E4800F000FD05466DB912
:10121000192000F049F8102C07D20022214619208D
:1012200000F052F80748046000E00125284607B0A6
:10123000F0BD00000010024040420F00002C0140B1
:10124000A00100201400002008B500BF14488069E8
:1012500040F00100124988610846806900F00100F1
:10126000009000BF00BF00BF0846C06940F080503A
:10127000C8610846C06900F08050009000BF00BF00
:1012800000220F21901E00F01FF800BF054948689A
:1012900020F0E06040F00070486000BF08BD000032
:1012A000001002400000014001460846002809DB0A
:1012B00000F01F0301229A4043099B0003F1E02341
:1012C000C3F8002100BF70472DE9F05F80460D464E
:1012D0001646002701F058FA074639462A46334693
:1012E00001F00700C0F1070ABAF1040F02D94FF06C
:1012F000040A01E0C0F1070AD14600F1040ABAF17C
:10130000070F02D24FF0000A01E0A0F1030AD44611
:101310004FF0010A0AFA09FAAAF1010A0AEA020AD6
:101320000AFA0CFA4FF0010B0BFA0CFBABF1010BB4
:101330000BEA030B4AEA0B042146404601F02CFA63
:10134000BDE8F09F00BF00F00702064B19684FF69A
:10135000FF031940044B0B4343EA0221014B196080
:1013600000BF70470CED00E00000FA0570B50446C0
:101370000D460CB9012070BD5A48006800F0070006
:10138000A8420ED25748006820F00700284355496C
:1013900008600846006800F00700A84201D001205C
:1013A000E9E7207800F0020002281DD1207800F043
:1013B0000400042805D14C48406840F4E0604A49E4
:1013C0004860207800F00800082805D146484068A9
:1013D00040F46050444948604348406820F0F000C1
:1013E000A168084340494860207800F0010078B3C4
:1013F0006068012806D13C48006800F4003090B9CC
:101400000120B8E76068022806D13748006800F07C
:10141000007040B90120AEE73348006800F00200D8
:1014200008B90120A7E73048406820F00300616850
:1014300008432D494860FFF791FE064609E0FFF793
:101440008DFE801B41F28831884202D9032092E749
:1014500007E02548406800F00C006168B0EB810FA0
:10146000EDD12048006800F00700A8420ED91D48C1
:10147000006820F0070028431A4908600846006801
:1014800000F00700A84201D0012074E7207800F0A6
:101490000400042807D11448406820F4E060E168A3
:1014A000084311494860207800F00800082808D156
:1014B0000D48406820F46050216940EAC1000A49A3
:1014C000486000F061F808494968C1F30311074A10
:1014D000515CC8400649086006480068FFF764FE92
:1014E000002048E70020024000100240B1610008DF
:1014F0001C000020140000200F2202600D4A5268D8
:1015000002F0030242600B4A526802F0F00282606D
:10151000084A526802F4E062C260064A526802F465
:101520006052D2080261044A126802F007020A609F
:10153000704700000010024000200240014800688F
:10154000704700001C00002000B5FFF7F7FF0449BA
:101550004968C1F30221034A515CC84000BD000044
:1015600000100240C161000800B5FFF7E7FF044921
:101570004968C1F3C221034A515CC84000BD000064
:1015800000100240C1610008F0B585B00FF26C0C8C
:101590009CE8E01001A8A0E8E0101CA52D680095CB
:1015A00000210022002300240020194D696801F069
:1015B0000C05F5B1042D02D0082D19D101E0154814
:1015C00019E001ADC1F38346AC5D01F4803555B13E
:1015D0000F4D6D68C5F340451DF805200D4D654361
:1015E000B5FBF2F302E00C4D04FB05F3184602E0F4
:1015F00000BF084800BF00BF05B0F0BD02030405EE
:10160000060708090A0B0C0D0E0F1010010200004E
:101610000010024000127A0000093D00F8B50446AF
:101620000CB90120F8BD207800F00100002878D026
:10163000F848406800F00C0004280CD0F5484068D9
:1016400000F00C00082811D1F248406800F4803006
:10165000B0F5803F0AD1EF48006800F40030002860
:101660005FD0606800285CD10120DBE700BF6068C4
:10167000B0F5803F06D1E748006840F48030E54986
:10168000086028E0606858B9E248006820F48030BB
:10169000E04908600846006820F4802008601AE0ED
:1016A0006068B0F5A02F0BD1DA48006840F48020C4
:1016B000D84908600846006840F4803008600AE0B5
:1016C000D448006820F48030D24908600846006899
:1016D00020F48020086000BF606888B1FFF73EFDFD
:1016E000054606E0FFF73AFD401B642801D90320B8
:1016F00098E7C848006800F400300028F2D010E0F5
:10170000FFF72CFD054606E0FFF728FD401B642887
:1017100001D9032086E7BF48006800F400300028A4
:10172000F2D1207800F00200022857D1B948406871
:1017300000F00C0050B1B748406800F00C000828D9
:1017400018D1B448406800F4803098B9B1480068B6
:1017500000F0020020B12069012801D0012061E7DA
:10176000AC48006820F0F800616940EAC100A9496E
:10177000086033E02069E8B10120A7490860FFF75D
:10178000EDFC054606E0FFF7E9FC401B022801D905
:10179000032047E79F48006800F002000028F2D0CD
:1017A0009C48006820F0F800616940EAC10099494E
:1017B000086013E0002098490860FFF7CFFC054659
:1017C00006E0FFF7CBFC401B022801D9032029E7E4
:1017D0009048006800F002000028F2D1207800F064
:1017E000080008282DD1A069B8B101208B490860F4
:1017F000FFF7B4FC054606E0FFF7B0FC401B0228EB
:1018000001D903200EE78348406A00F00200002857
:10181000F2D0012000F0CAFD13E000207F490860EB
:10182000FFF79CFC054606E0FFF798FC401B0228EA
:1018300001D90320F6E67748406A00F0020000284C
:10184000F2D1207800F00400042873D100277148F9
:10185000C06900F0805070B900BF6E48C06940F0A8
:1018600080506C49C8610846C06900F08050009003
:1018700000BF00BF01276A48006800F48070B0B95B
:101880006748006840F4807065490860FFF766FCAF
:10189000054606E0FFF762FC401B642801D90320DF
:1018A000C0E65F48006800F480700028F2D000BFF6
:1018B000E068012806D15748006A40F00100554908
:1018C000086227E0E06858B95248006A20F0010039
:1018D000504908620846006A20F00400086219E0D6
:1018E000E06805280BD14B48006A40F004004949E4
:1018F00008620846006A40F0010008620AE04548B4
:10190000006A20F00100434908620846006A20F09E
:101910000400086200BFE068A0B1FFF71FFC0546A5
:1019200009E0FFF71BFC401B41F28831884202D9D5
:10193000032077E622E03748006A00F00200002822
:10194000EFD012E0FFF70AFC054608E0FFF706FCBF
:10195000401B41F28831884201D9032062E62D48BC
:10196000006A00F002000028F0D1012F05D12948BB
:10197000C06920F080502749C86100BFE069C8B342
:101980002448406800F00C00082860D0E069022874
:1019900048D1002020490866FFF7E0FB054606E035
:1019A000FFF7DCFB401B022801D903203AE6194867
:1019B000006800F000700028F2D1206AB0F5803F86
:1019C00007D11448406820F40030A1680843114949
:1019D0004860D4E9080108430E49496821F47411AC
:1019E00008430C49486001200B490866FFF7B6FB25
:1019F000054607E03DE0FFF7B1FB401B022801D997
:101A000003200FE60348006800F000700028F2D0C1
:101A10002FE00000001002400000424280044242D9
:101A200000700040002014490866FFF797FB054648
:101A300006E0FFF793FB401B022801D90320F1E5E4
:101A40000E48006800F000700028F2D111E0E06953
:101A5000012800D1E6E50948466806F48031206A8D
:101A6000814204D106F47011606A814201D00120E4
:101A7000D8E50020D6E500000000424200100240F8
:101A80007047704730B502460B4600BF92F83C00E5
:101A9000012801D1022030BD012082F83C0000BFA6
:101AA000022082F83D00106844681068816824F0C4
:101AB00070041868044310684460104D1068A84210
:101AC0000BD01068B0F1804F07D00D4D1068A842C0
:101AD00003D00C4D1068A84205D121F08001586850
:101AE000014310688160012082F83D0000BF0020A2
:101AF00082F83C0000BF00BFCDE70000002C014091
:101B0000000400400008004010B504460CB9012054
:101B100010BD94F83D0028B9002084F83C00204610
:101B200000F026F8022084F83D00211D206800F016
:101B3000A7FC012084F8460000BF84F83E00012184
:101B40003F200155402001554120015500BF00BFF5
:101B5000012084F8420043200155442001554520CE
:101B6000015500BF012084F83D000020D0E70000AF
:101B700008B5094A016891420DD100BF0749C969FA
:101B800041F00401054AD1611146C96901F004011F
:101B9000009100BF00BF08BD0008004000100240D7
:101BA000014691F83D00012801D001207047022034
:101BB00081F83D00124B086898420BD00868B0F1DC
:101BC000804F07D00F4B0868984203D00E4B08682F
:101BD00098420CD10868806800F00702062A0CD0F1
:101BE0000868006840F001000B68186005E00868AC
:101BF000006840F001000B6818600020D6E7000084
:101C0000002C01400004004000080040014691F80B
:101C10003D00012801D001207047022081F83D00DD
:101C20000868C06840F001000B68D860124B086873
:101C300098420BD00868B0F1804F07D00F4B08686E
:101C4000984203D00E4B086898420CD1086880680F
:101C500000F00702062A0CD00868006840F0010076
:101C60000B68186005E00868006840F001000B6828
:101C700018600020D0E70000002C01400004004064
:101C800000080040014600BF0868006A41F21112D6
:101C9000104050B90868006A9210104028B90868CE
:101CA000006820F001000A68106000BF012081F880
:101CB0003D00002070472DE9F04104460D4600BF6D
:101CC00094F83C00012802D10220BDE8F0810120F7
:101CD00084F83C0000BF022084F83D00206886683C
:101CE00026F0770626F47F4620688660286850280C
:101CF00033D00CDC202850D004DC00284BD0102836
:101D000051D149E0302849D040284CD139E06028F1
:101D10002DD0702807D0B0F5805F03D0B0F5005FFC
:101D200041D10DE040E0D5E902136A68206800F077
:101D3000E1FB2068866846F077062068866033E01D
:101D4000D5E902136A68206800F0D4FB2068806837
:101D500040F480402168886026E0EA68696820686D
:101D600000F0DCFB5021206800F0CFFB1CE0EA68AB
:101D70006968206800F0E5FB6021206800F0C5FB81
:101D800012E0EA686968206800F0C8FB402120681A
:101D900000F0BBFB08E000BF00BF00BF296820685F
:101DA00000F0B3FB00E000BF00BF012084F83D005D
:101DB00000BF002084F83C0000BF00BF85E77047EB
:101DC00010B5044620680069C0F34000D8B120680F
:101DD000C068C0F34000B0B16FF002002168086134
:101DE000012020772068806900F0030018B12046A8
:101DF000FFF7E5FF05E0204600F0ADF8204600F0D3
:101E0000ABF80020207720680069C0F38000D8B1CB
:101E10002068C068C0F38000B0B16FF00400216892
:101E20000861022020772068806900F4407018B1B2
:101E30002046FFF7C4FF05E0204600F08CF820465E
:101E400000F08AF80020207720680069C0F3C00005
:101E5000D8B12068C068C0F3C000B0B16FF008000E
:101E600021680861042020772068C06900F0030021
:101E700018B12046FFF7A3FF05E0204600F06BF8FD
:101E8000204600F069F80020207720680069C0F340
:101E90000010D8B12068C068C0F30010B0B16FF076
:101EA000100021680861082020772068C06900F4CC
:101EB000407018B12046FFF782FF05E0204600F091
:101EC0004AF8204600F048F8002020772068006992
:101ED00000F0010058B12068C06800F0010030B186
:101EE0006FF0010021680861204600F037F8206893
:101EF0000069C0F3C01058B12068C068C0F3C010BA
:101F000030B16FF08000216808612046FFF7B8FD0E
:101F100020680069C0F3801058B12068C068C0F321
:101F2000801030B16FF0400021680861204600F059
:101F300021F820680069C0F3401058B12068C068DB
:101F4000C0F3401030B16FF02000216808612046D6
:101F5000FFF797FD10BD70477047000010B50446AD
:101F600003492068884201D1FFF7FEF810BD000048
:101F7000002C0140704710B504460CB9012010BD7B
:101F8000A06900B100E000BF94F83D0028B900202E
:101F900084F83C00204600F027F8242084F83D0017
:101FA0002068C06820F400502168C860204600F016
:101FB000DDFA2068006920F49040216808612068FB
:101FC000406920F02A00216848612068C06840F418
:101FD00000502168C86000202064202084F83D0063
:101FE00084F83E000020CAE710B586B00446002001
:101FF00002900390049005903349206888422FD1C5
:1020000000BF3248806940F480403049886108460A
:10201000806900F48040019000BF00BF00BF084607
:10202000806940F0040088610846806900F004007F
:10203000019000BF00BF48150290022003900320CA
:10204000059002A92248FEF7E1FE4FF4806002905D
:1020500000200390049002A91D48FEF7D7FE31E04E
:102060001C49206888422DD100BF1848C06940F43F
:1020700000301649C8610846C06900F4003001907C
:1020800000BF00BF00BF0846806940F004008861BF
:102090000846806900F00400019000BF00BF0420E2
:1020A0000290022003900320059002A90848FEF741
:1020B000ADFE0820029000200390049002A904487D
:1020C000FEF7A4FE06B010BD00380140001002402B
:1020D00000080140004400402DE9F84F04460E4638
:1020E000174699464FF0000A94F83D0020285AD12F
:1020F00006B117B90120BDE8F88F00BF94F83C0085
:10210000012801D10220F6E7012084F83C0000BF3D
:1021100000202064212084F83D00FFF71FF882464C
:10212000A784E784A068B0F5805F04D1206910B966
:102130000025B04602E035464FF0000800BF002001
:1021400084F83C0000BF1BE053460022802120465B
:10215000CDF8009000F088FA08B10320CBE745B92C
:10216000B8F80000C0F308002168486008F10208D0
:1021700003E02878216848606D1CE08C401EE084F4
:10218000E08C0028E0D15346002240212046CDF8C3
:10219000009000F069FA08B10320ACE7202084F831
:1021A0003D000020A7E70220A5E700BFFEE70000F2
:1021B00010B50B4A00210B4801F03EFE0A490860A9
:1021C0000A4A00210A4801F037FE0A4908600A4A13
:1021D00000210A4801F030FE0949086010BD0000E6
:1021E00028610008A9070008040000204C610008CD
:1021F000C90B0008080000207061000851080008A1
:102200000C00002000B585B00020019002900390E2
:10221000049000BF2948806940F010002749886178
:102220000846806900F01000009000BF00BF00BFAA
:102230000846806940F0200088610846806900F007
:102240002000009000BF00BF00BF0846806940F03A
:10225000040088610846806900F00400009000BF17
:1022600000BF00BF0846806940F00800886108464A
:10227000806900F00800009000BF00BF00224FF40A
:1022800000510F48FEF764FF4FF400500190012009
:102290000290002003900320049001A90848FEF753
:1022A000B5FD4FF4007001900020029001200390D2
:1022B00001A90448FEF7AAFD05B000BD00100240C8
:1022C00000100140000C014000B587B000200390D1
:1022D00004900590069001900290144814490860FB
:1022E000472048600021124881604FF6FF71C160AD
:1022F000002101618161FFF707FC08B1FEF76EFD67
:102300004FF48050039003A90948FFF7D4FC08B1AB
:10231000FEF764FD00200190029001A90448FFF738
:10232000B1FB08B1FEF75AFD07B000BD0008004040
:10233000D000002010B50B480B4908604FF4E13085
:102340004860002108488160C16001610C21416141
:1023500000218161C161FFF70EFE08B1FEF73EFD6D
:1023600010BD0000003801401801002010B50B48D6
:102370000B4908604FF4E130486000210848816053
:10238000C16001610C21416100218161C161FFF7E0
:10239000F2FD08B1FEF722FD10BD00000044004030
:1023A0005C01002000BFFEE700BFFEE708B508495A
:1023B0000968C9084FF47A72B1FBF2F14143009108
:1023C00000BF00BF00994A1E00920029F9D108BD44
:1023D0001C00002010B500BF502080F31188BFF30F
:1023E0004F8FBFF36F8F00BF03F05AFC18B14FF04F
:1023F00080500449086000BF002080F3118800BFAE
:1024000010BD000004ED00E000B58FB0282105A844
:10241000FDF7FFFE14216846FDF7FBFE0120059045
:1024200000040690002007900120099002200C90E3
:10243000C1030D914FF4E0110E9105A8FFF7EEF8DE
:1024400008B1FEF7CBFC0F20009002200190002085
:1024500002904FF4806003900020049002216846AF
:10246000FEF784FF08B1FEF7B9FC0FB000BD70475E
:1024700010B50248FFF7A4FC10BD0000A001002029
:1024800010B50268184B984208D0B0F1804F05D0C3
:10249000164B984202D0164B984203D122F070029C
:1024A0004B681A43104B984208D0B0F1804F05D0CA
:1024B0000E4B984202D00E4B984203D122F4407248
:1024C000CB681A4322F080034C6943EA040202609D
:1024D0008B68C3620B688362034B984201D10B691E
:1024E00003630123436110BD002C01400004004040
:1024F0000008004030B50C46816821F47F4142EA73
:10250000032525432943816030BD0A46816821F0B7
:10251000700142F0070319438160704730B50B46E4
:102520001446026A056A25F001050562816921F0F9
:10253000F00141EA041122F00A021A4381610262A9
:1025400030BD30B50B461446056A25F0100505620E
:102550008169026A21F4704141EA043122F0A0024B
:1025600042EA03128161026230BD000070B5044688
:102570002168096921F44051E26811432268116120
:102580002269A1681143626941EA02052168C968AC
:1025900041F20C62914329432268D1602168496964
:1025A00021F44071A2691143226851612D4A2168CA
:1025B000914202D1FEF7D8FF01E0FEF7C5FF00EB24
:1025C000C00101EB001162689200B1FBF2F100EB77
:1025D000C00202EB001263689B00B2FBF3F26423BB
:1025E000B2FBF3F202EBC20303EB0212A1EB820196
:1025F000322202EB01116422B1FBF2F101F0F00191
:1026000000EBC00202EB001263689B00B2FBF3F226
:102610006423B2FBF3F201EB021200EBC00101EB09
:10262000001163689B00B1FBF3F100EBC00303EB07
:1026300000136668B600B3FBF6F36426B3FBF6F34B
:1026400003EBC30606EB0313A1EB8301322303EB79
:1026500001116423B1FBF3F101F00F011144226871
:10266000916070BD003801402DE9F04104460D46EF
:1026700017469846069E21E0701CF8B12EB1FEF771
:102680006DFDA0EB0800B04218D92068C06820F4A6
:10269000D0702168C8602068406920F0010021687E
:1026A0004861202084F83D0084F83E0000BF0020EF
:1026B00084F83C0000BF0320BDE8F081206800687A
:1026C0002840A84201D1012000E00020B842D3D028
:1026D0000020F1E700BFFEE70FB4054B10B503A9DA
:1026E000044A029800F046F910BC5DF814FB0000A3
:1026F000093C0008CC0000200FB47CB50C0009ADEB
:1027000001D0611E00E00021CDE90001064B6A46C0
:102710002946089800F02EF9002C02D0009A0021DA
:1027200011707CBC5DF814FB7B3000080FB4084BC3
:1027300010B504A902AA039800F01CF9044602A9E6
:10274000002000F0A5FC204610BC5DF814FB000042
:10275000913000087CB50C001D461646014601D09C
:10276000601E00E00020CDE90010064B6A462946B5
:10277000304600F0FFF8002C02D0009A00211170C2
:102780007CBD00007B30000802480068C0F30220D6
:10279000704700000CED00E010B5002804DB0A07CC
:1027A000130E054A135406E00A07140E034A00F0FC
:1027B0000F031B1FD45410BD00E400E018ED00E02F
:1027C000EFF311807047EFF305807047EFF310804F
:1027D000704702E008C8121F08C1002AFAD17047EA
:1027E0007047002001E001C1121F002AFBD1704791
:1027F0002DE9FF5F82B00021DDE90430020DDDF834
:1028000040B0034318D044F61050A2F2FF324243C6
:102810001514119801281FD0A5EB0B00401C5FEA8E
:10282000000A4FF000064E4FDFF83891B046504690
:1028300015D5CAF1000413E0119801244AA3012818
:1028400001D16FEA0B010298119AC0E90031C0E989
:10285000024206B0BDE8F09FCBF10000DFE704467E
:102860000021404A491842EB0450CDE9001012E023
:10287000E00707D032463B4640464946FDF7F3FDA8
:102880008046894632463B4610461946FDF7EBFD29
:1028900006460F466410002CEAD1DDE90401DDE9AB
:1028A0000023BAF1000F06DAFDF7DDFD42464B4684
:1028B000FDF7D9FD05E0FDF748FE42464B46FDF722
:1028C00044FE04460E460022284BFDF7C5FE03D801
:1028D0004FF0FF30014607E00022254B20463146ED
:1028E000FDF71AFDFDF7A0FE102409E0002C0ADB1D
:1028F0000A220023FDF7DFFC039B30321A55641EC9
:1029000050EA0102F2D1641C039AC4F11103144489
:10291000119A012A03D0012208430DD10AE008438D
:1029200004D000204FF0110B119072E7A3EB0B05C0
:102930006D1E0DE05B4504DD4FF0000205F1010561
:1029400004E003DA4FF00002A5F10105002AECD003
:1029500002981199C0E90231C0E9004579E7000009
:10296000000014400000F03F300000000000F04381
:102970000000E03F2DE9FF4F95B09A468846064695
:102980000025EEE1252877D100242746F94A0121C8
:10299000039400E0044316F8013F203B01FA03F0E2
:1029A0001042F7D130782A2811D06FF02F033078F9
:1029B000A0F13002092A16D8039A44F0020402EB6F
:1029C000820203EB42021044761C0390EFE758F8B2
:1029D000042B0392002A03DA504244F4005403907B
:1029E00044F00204761C30782E2816D116F8010F18
:1029F00044F004042A280DD06FF02F023078A0F1A3
:102A00003003092B09D807EB870302EB4303C718F0
:102A1000761CF3E758F8047B761C30786C280FD0CE
:102A200006DC4C2817D068280DD06A2814D104E0A1
:102A3000742810D07A280FD10DE044F400140AE075
:102A400044F4801401E044F440147278824202D1CC
:102A500004F58014761C761C307866280BD013DCC5
:102A6000582877D009DC002875D04528F6D04628AC
:102A7000F4D047281AD193E118E0632835D06428B0
:102A800079D0652812D18BE1702873D008DC6728D3
:102A9000F1D069286FD06E280DD06F2806D1ACE038
:102AA00073282CD0752874D0782853D052461799A3
:102AB00090476D1C54E1C4F30250022809D003284A
:102AC0000DD0D8F8001004280DD00D6008F10408CE
:102AD00046E1D8F80010EA17C1E90052F6E7D8F845
:102AE00000100D80F2E70D70F0E718F8041B8DF868
:102AF000001000208DF80100EB46012003E058F89B
:102B000004BB4FF0FF3061074FF0000102D40DE02D
:102B100009F101018946B9420FDA8145F8DB1BF85A
:102B200009100029F4D108E009F101018946814228
:102B3000FADB1BF809100029F6D103985346A0EBE5
:102B4000090721463846179A00F080FA284400EB1E
:102B5000090507E044E008E10DE01BF8010B5246CF
:102B600017999047B9F10109F7D2534621463846E3
:102B7000179AF2E039E00A21C4F302524FF0000B39
:102B80000091022A06D058F8040BC117032A09D075
:102B90000AE023E008F1070020F00702F2E8020152
:102BA000904605E000B2C117042A01D140B2C11716
:102BB000002906DA0A460021404261EB02012D227B
:102BC00002E0220504D52B228DF80420012203E027
:102BD000E20701D02022F7E7914657E00A2100E002
:102BE00010214FF0000B00910BE010214FF0000B73
:102BF00044F004040827009103E008204FF0000B84
:102C00000090C4F30252022A05D058F8040B0021A8
:102C1000032A08D008E008F1070020F00702F2E8D4
:102C20000201904603E080B2042A00D1C0B24FF006
:102C3000000922072AD53278702A07D0DDF800C0B3
:102C40008CF0100C5CEA0B0C05D00EE040228DF8E5
:102C50000420012208E050EA010306D030238DF859
:102C600004308DF8052002229146009B83F0080372
:102C700053EA0B030AD150EA010201D1620705D5DC
:102C800030228DF804204FF001097F1E3278582A37
:102C900004D039A20C920CAA02920BE03BA2F9E7F5
:102CA0005B46009AFDF707FB0C9B9B5C029A521E49
:102CB0000292137050EA0102F2D1029804A9081A94
:102CC00000F1200B600702D524F4803400E00127D6
:102CD0005F4502DDA7EB0B0000E0002000EB0B01DD
:102CE000009003984944401A0390E00306D45346E9
:102CF0002146179A039800F0A9F90544002706E039
:102D000001A85246C05D179990476D1C7F1C4F4526
:102D1000F6DBE0030CD553462146179A039800F0E2
:102D200095F9054404E030205246179990476D1CF0
:102D30000099481E00900029F5DC08E002980299ED
:102D400052460078491C0291179990476D1CBBF1BF
:102D50000001ABF1010BF1DC5BE100F065F905442A
:102D6000761C307800287FF40DAE19B02846BDE8F7
:102D7000F08F000009280100303132333435363706
:102D800038396162636465660000000030313233B7
:102D90003435363738394142434445460000000057
:102DA000600700D4062708F1070020F00700F0E8CC
:102DB0000223804603F0004C5FEA0C0001D097A08C
:102DC00009E0200501D596A005E0E00701D095A017
:102DD00001E0AFF24C001390307823F000436528F7
:102DE0000CD006DC452809D046281DD047287FD1C5
:102DF0003BE0662818D067287AD136E00021112FF1
:102E000001DB112000E0781CCDE9000104A90CA829
:102E1000FFF7EEFCDDE90D010C9A4FF0000B07F116
:102E20000109109200914EE04FF000400097CDE96B
:102E3000011004A90CA8FFF7DBFCDDE90D020C9BD7
:102E40000F994FF0000B91461093009211B9791C25
:102E500000EB0109B7EB090003D4C0F1FF3B07F118
:102E60000109A9EB0700019042E0012F00DA0127D8
:102E70000021112F01DD112000E03846CDE90001CD
:102E800004A90CA8FFF7B4FCDDE90D010C9A009130
:102E90004FF0000BB946109221070FD4009A4A4513
:102EA00003DA914601E0A9F10109B9F1010F05DD4D
:102EB000109AA9F10101515C3029F4D0B84202DA2C
:102EC00010F1040F03DA0121CDE9011010E0002810
:102ED00003DC8344A9EB000102E0411C494500DD0D
:102EE0008946A0EB0B00401C01904FF0004002907F
:102EF000200705D40198484502DB4FF0FF300190D0
:102F000000208DF84B0002980DF14B07B0F1004FF7
:102F100025D002200C902B200D90029800280CDA6E
:102F2000404202902D200D9007E00A210298FDF703
:102F3000ACF93031029007F8011D0C99481E0C9035
:102F40000029F2DC02980028EFD1791E0D98087054
:102F5000307800F0200040F0450007F8020D11A87D
:102F6000C01BC01D02901398007800B1012000EB37
:102F70000901019801EBE071029801440398401A9D
:102F8000401E0390E00306D453462146179A039847
:102F900000F05CF805441398007818B15246179970
:102FA00090476D1CE00323D553462146179A03989A
:102FB00000F04CF805441BE0BBF1000F07DB009864
:102FC000584504DD1098179910F80B0001E0179987
:102FD00030205246904701980BF1010B401E05F13D
:102FE0000105019004D12E205246179990476D1C7F
:102FF000B9F10001A9F10109DEDC05E017F8010BC8
:103000005246179990476D1C0299481E029000295C
:10301000F4DC53462146179A03989EE62D000000E3
:103020002B000000200000002DE9F041044600259F
:103030001E461746880404D405E039462020B047D0
:103040006D1C641EF9D52846BDE8F0812DE9F041DC
:10305000044600251E469046C80301D5302700E0EF
:103060002027880404D505E041463846B0476D1C4A
:10307000641EF9D52846BDE8F0814A68002A06D0CA
:103080000A68531C0B6010704868401E4860704707
:103090000A68531C0B601070704700002DE9F04166
:1030A00007463E4656B900BF502080F31188BFF353
:1030B0004F8FBFF36F8F00BF00BFFEE7134800685C
:1030C000864201D100241EE001F0E6FD756901F0A1
:1030D0000DFE0F480068854203D00E480068854207
:1030E00001D102240FE00C48854205D1B06A08B92D
:1030F000032408E0022406E00848854200D00DB908
:10310000042400E001242046BDE8F08120000020D6
:103110002400002028000020D8060020C40600203B
:1031200070B586B00546002D1CD1264800680028E1
:1031300011D14FF4EF70244924A229A3CDE9031043
:10314000CDE9013200900B462EA235A1002000F0FF
:1031500095F800BFFEE74FF4EF721B491BA0194B17
:103160001B689847002405262F4890F8F00010B9F6
:10317000304606B070BD00F06FFA00241BE004EB8F
:10318000441129483130084490F82000012810D11A
:1031900004EB4412244831301044411C1E222846BE
:1031A000FDF764F828B904EB44111F483130465C40
:1031B00003E0601CC4B2052CE1DB00BF00F080FA24
:1031C0003046D6E7C80000205B62000874616720C3
:1031D000213D202828766F6964202A2930290000A3
:1031E00028257329206861732061737365727420C8
:1031F0006661696C65642061742025733A256C648E
:103200002E0000002E2E5C656173796C6F67676518
:10321000725C7372635C656C6F672E630000000004
:10322000656C6F6700000000BC1A002010B5002418
:10323000114890F8F000012801D1204610BD00F09F
:103240005FFA04460CB12046F8E7012000F018FAB6
:103250000020094981F8F30081F8F400012000F012
:10326000A5FB052000F05EFA00F0BAFA0120024941
:1032700081F8F0002046E1E7BC1A00202DE9F04F6C
:103280008DB005460F46934698463846FCF7DEFF5C
:10329000814600244FF0020A00200B900C9007900A
:1032A000089009900A90052D1CDDC148006800288F
:1032B00011D14FF40F70BF49BFA2C6A3CDE90310CF
:1032C000CDE9013200900B46CBA2D2A10020FFF73E
:1032D000D5FF00BFFEE74FF40F72B649B6A0B44B5E
:1032E0001B689847CD4890F8F10010B90DB0BDE8C3
:1032F000F08FCA480078A84204DB3846FFF710FF79
:10330000A84200DAF2E7C549491C3846FCF78CFFB1
:1033100000B9EBE718A8069000F09EF9BF4890F8B6
:10332000F50078B1BE480119BEA2204600F0ECFBC2
:103330000444BD4850F82520B9480119204600F042
:10334000E3FB04440121284600F06AFC40B1B74881
:1033500050F82520B2480119204600F0D5FB04445E
:103360000221284600F05CFCE8B1AD4801193A465C
:10337000204600F0C9FB0444B9F10F0F0CD8C9F185
:103380000F01202207A8FCF73DFFA548011907AA55
:10339000204600F0B9FB0444A1480119A4A220462C
:1033A00000F0B2FB04441C21284600F039FC002840
:1033B00052D09B4801199FA2204600F0A5FB04446F
:1033C0000421284600F02CFCA8B100F095F90590E6
:1033D000934801192046059A00F096FB04441821F1
:1033E000284600F01DFC30B18D48011990A22046FE
:1033F00000F08AFB04440821284600F011FCA8B123
:1034000000F072F90590864801192046059A00F0EF
:103410007BFB04441021284600F002FC30B18048B8
:10342000011983A2204600F06FFB044410212846B6
:1034300000F0F6FB48B100F05BF9059078480119FF
:103440002046059A00F060FB0444754801197AA2F1
:10345000204600F059FB0444E021284600F0E0FB40
:1034600000285CD06E48011974A2204600F04CFB85
:1034700004442021284600F0D3FBF8B16848011924
:103480005A46204600F040FB04444021284600F004
:10349000C7FB38B16248011969A2204600F034FB2D
:1034A00004440BE08021284600F0BAFB30B15C48B0
:1034B00001195FA2204600F027FB04448021284622
:1034C00000F0AEFBC0B15FA205210BA8169BFFF771
:1034D00013F9534801190BAA204600F015FB0444C8
:1034E0004021284600F09CFB30B14D48011950A204
:1034F000204600F009FB04444021284600F090FBE0
:1035000030B1474801194246204600F0FDFA044414
:10351000434801194CA2204600F0F6FA0444C4F5D1
:1035200080613F4A1019069B179AFFF713F9064668
:1035300000200690A019B0F5806F03D8002E01DBA3
:10354000344401E04FF48064201D5044B0F5806F96
:1035500004D94FF48064241FA4EB0A042F4890F888
:10356000200058B100202E4908552C4920312C4804
:10357000FCF75AFE10B900F0A3F8B7E6274890F818
:10358000F50030B12648011930A2204600F0BCFAFF
:103590000444234801192FA2204600F0B5FA044440
:1035A00021461F4800F0AEF800F08AF800BF9DE603
:1035B000C8000020736200086C6576656C203C3D95
:1035C00020454C4F475F4C564C5F564552424F5337
:1035D00045000000282573292068617320617373FA
:1035E000657274206661696C65642061742025735E
:1035F0003A256C642E0000002E2E5C656173796C98
:103600006F676765725C7372635C656C6F672E636E
:1036100000000000656C6F6700000000BC1A00200D
:10362000B41B00201B5B0000B000002098000020AD
:10363000200000005B0000005D200000280000006A
:103640003A000000256C6400290000001B5B306D0F
:10365000000000000D0A000010B5084890F8F200C4
:1036600030B100F05DF80120044981F8F40003E076
:103670000120024981F8F30010BD0000BC1A0020AF
:1036800010B504460D4880F8F24090F8F200A0B161
:103690000A4890F8F40030B9084890F8F30010B1E7
:1036A00000F03EF809E0054890F8F40028B103481E
:1036B00090F8F30008B900F034F810BDBC1A0020EF
:1036C00010B5084890F8F20030B100F02AF8002058
:1036D000044981F8F40003E00020024981F8F30076
:1036E00010BD0000BC1A002000A0704700000000C0
:1036F00000A070470000000000A07047000000001C
:103700000020704770B504460D462246294602A0A7
:10371000FEF7E2FF70BD0000252E2A7300000000B6
:103720007047704710B586B00446052C1CDD104864
:103730000068002811D14FF4AC700E490EA215A3F9
:10374000CDE90310CDE9013200900B461AA221A168
:103750000020FFF793FD00BFFEE74FF4AC72054970
:1037600005A0034B1B6898471C48047006B010BDA9
:10377000C80000202F6200086C6576656C203C3D17
:1037800020454C4F475F4C564C5F564552424F5375
:103790004500000028257329206861732061737338
:1037A000657274206661696C65642061742025739C
:1037B0003A256C642E0000002E2E5C656173796CD6
:1037C0006F676765725C7372635C656C6F672E63AD
:1037D00000000000656C6F6700000000BC1A00204C
:1037E00010B5002400BF13E004EB44120A49114451
:1037F000481C1F21FCF70DFD002104EB4412064874
:10380000815404EB4412104480F82010601CC4B2B0
:10381000052CE9DB10BD0000ED1A002030B585B0A5
:1038200004460D46052C1CDD10480068002811D107
:103830004FF49F700E490FA215A3CDE90310CDE9F7
:10384000013200900B461BA221A10020FFF716FDBC
:1038500000BFFEE74FF49F72054906A0034B1B68AB
:1038600098471D4840F8245005B030BDC8000020DE
:10387000126200086C6576656C203C3D20454C4F1B
:10388000475F4C564C5F564552424F53450000002F
:103890002825732920686173206173736572742011
:1038A0006661696C65642061742025733A256C64D7
:1038B0002E0000002E2E5C656173796C6F67676562
:1038C000725C7372635C656C6F672E63000000004E
:1038D000656C6F6700000000941B002010B586B077
:1038E0000446002C1ED0012C1CD011480068002872
:1038F00011D140F213100F490FA219A3CDE9031003
:10390000CDE9013200900B461EA225A10020FFF751
:10391000B5FC00BFFEE740F21312064906A0044BB7
:103920001B689847204880F8F14006B010BD0000A1
:10393000C8000020DE61000828656E61626C656465
:10394000203D3D2066616C736529207C7C202865C4
:103950006E61626C6564203D3D207472756529005E
:103960002825732920686173206173736572742040
:103970006661696C65642061742025733A256C6406
:103980002E0000002E2E5C656173796C6F67676591
:10399000725C7372635C656C6F672E63000000007D
:1039A000656C6F6700000000BC1A002010B586B07F
:1039B0000446002C1ED0012C1CD0114800680028A1
:1039C00011D140F21F100F490FA219A3CDE9031026
:1039D000CDE9013200900B461EA225A10020FFF781
:1039E0004DFC00BFFEE740F21F12064906A0044B43
:1039F0001B689847204880F8F54006B010BD0000CD
:103A0000C8000020F661000828656E61626C65647C
:103A1000203D3D2066616C736529207C7C202865F3
:103A20006E61626C6564203D3D207472756529008D
:103A3000282573292068617320617373657274206F
:103A40006661696C65642061742025733A256C6435
:103A50002E0000002E2E5C656173796C6F676765C0
:103A6000725C7372635C656C6F672E6300000000AC
:103A7000656C6F6700000000BC1A00200EB50B4893
:103A800090F8F00000B90EBD0120FFF727FF08A055
:103A900009A1F422124BCDE90021029011A218A134
:103AA0000320FFF7EBFB00BFEDE70000BC1A00208E
:103AB000322E322E39390000456173794C6F6767B9
:103AC00065722056257320697320696E6974696177
:103AD0006C697A6520737563636573732E000000EB
:103AE000C96100082E2E5C656173796C6F6767652C
:103AF000725C7372635C656C6F672E63000000001C
:103B0000656C6F6700000000F0B585B006460D4695
:103B100014462746002D19D12448006880B92C206E
:103B2000234924A224A3CDE90310CDE9013200905A
:103B30000B462AA231A10020FFF7A0FB00BFFEE741
:103B40002C221B491BA0194B1B689847002C19D12C
:103B50001648006880B92D2015492AA216A3CDE980
:103B60000310CDE9013200900B461CA223A10020D6
:103B7000FFF784FB00BFFEE72D220D4921A00B4B70
:103B80001B6898470AE03046761CB0F5806F04D277
:103B900014F8010B05F8010B00E002E02078002882
:103BA000F1D100BFE01B05B0F0BD0000C80000204F
:103BB000AB62000864737400282573292068617360
:103BC00020617373657274206661696C656420613D
:103BD000742025733A256C642E0000002E2E5C653F
:103BE0006173796C6F676765725C7372635C656C37
:103BF0006F675F7574696C732E630000656C6F6727
:103C0000000000007372630013B50C460A23012202
:103C100069460248FEF760FA00981CBD18010020B2
:103C200030B585B004460D46052C1CDD13480068F0
:103C3000002811D140F2DB20114912A218A3CDE9CE
:103C40000310CDE9013200900B461EA224A10020F2
:103C5000FFF714FB00BFFEE740F2DB22084909A092
:103C6000064B1B689847204850F82400284010B1A4
:103C7000012005B030BD0020FBE70000C800002097
:103C80007F6200086C6576656C203C3D20454C4F9A
:103C9000475F4C564C5F564552424F53450000001B
:103CA00028257329206861732061737365727420FD
:103CB0006661696C65642061742025733A256C64C3
:103CC0002E0000002E2E5C656173796C6F6767654E
:103CD000725C7372635C656C6F672E63000000003A
:103CE000656C6F6700000000941B00201CB5FDF799
:103CF00047FAFEF789FBFEF785FAFEF71BFBFEF796
:103D0000E3FAFEF733FB00210E48AFF30080FFF724
:103D10008DFAFF210020FFF781FDFFF7AFFE0AA01B
:103D200077210E4B0EA2CDE9001012A10420FFF75F
:103D3000A5FA00F03FF8FEF73BFA00F05BF800BF91
:103D4000FEE70000CC000020C8D5D6BEB9A6C4DC72
:103D5000B3F5CABCBBAFB3C9B9A600002061000867
:103D60002E2E2F436F72652F5372632F6D61696E14
:103D70002E6300004D61696E0000000070B50546BD
:103D8000FEF721FD48B9FEF721FD30B9084800686B
:103D9000022805D1FEF714FD10B16FF0050404E010
:103DA000002415B1284601F095F8204670BD0000AA
:103DB0007000002010B5FEF706FD48B9FEF706FDBD
:103DC00030B90B480068022805D1FEF7F9FC10B1A4
:103DD0006FF0050409E00648006820B90120044995
:103DE0000860002401E04FF0FF34204610BD0000C1
:103DF0007000002010B5FEF7E6FC48B9FEF7E6FCBF
:103E000030B90C480068022805D1FEF7D9FC10B182
:103E10006FF005040CE007480068012806D1022075
:103E20000449086001F052FA002401E04FF0FF3429
:103E3000204610BD700000202DE9F04786B0804676
:103E40008946144600200490FEF7BDFC00285DD191
:103E5000FEF7BCFC002859D12D480068022803D188
:103E6000FEF7AEFC002851D1B8F1000F4ED08026ED
:103E70001825002005900DF1140A471E44B3206850
:103E800008B1D4F800A0A06900B1A5692DB1382D02
:103E900003D8207900F0010018B1002006B0BDE879
:103EA000F087606908B160698608A06840B1E06881
:103EB0005C2805D3206918B1606908B1012708E0C2
:103EC000A06830B9E06820B9206910B9002700E087
:103ED0000027012F0CD12169A0684B463246CDE95D
:103EE000005102905146404601F050FE04900DE012
:103EF00067B904A8B2B24B465146CDE900504046DE
:103F000001F012FE012801D0002004900498C5E7BA
:103F1000700000202DE9F04105460E46164807685E
:103F200016480068001D00F0E3FD681C38B936B182
:103F300012480168091D124800F0A2FE1AE07C191F
:103F40000E4800684460BC4207D20C480168091D55
:103F50000C48006800F07AFE0CE008480168091D72
:103F60000948006800F072FE08480068844201D2E7
:103F700006480460BDE8F0813400002020000020E5
:103F8000D806002028000020240000205000002037
:103F900010B5044600F080FE24480068401C234908
:103FA00008602348006840B921480460084600685A
:103FB00001280DD100F0F8F90AE01E48006838B970
:103FC0001B480068C06AE16A884201D8184804604A
:103FD00019480068401C1849086008460068606479
:103FE0001649E06A0968884202D91449E06A086003
:103FF000E16A01EB8101124A02EB8100211D00F010
:104000003FFE00F073FE0B48006868B10848006886
:10401000C06AE16A884207D24FF0805009490860BF
:10402000BFF34F8FBFF36F8F10BD00003000002033
:10403000200000203C0000204C0000203800002020
:104040002802002004ED00E008B500F025FE12482B
:104050000068E8B9114800F0E9FD114800F0E6FDFC
:104060000E48104908600E480F49086000200F4BA9
:104070000F4A102100900A2001F050FA064908600A
:104080000846006820B10BA10348006800F0E6FE76
:1040900000F02CFE08BD000064000020EC060020AB
:1040A000000700205C0000206000002014070020B2
:1040B00064070020546D72510000000010B516E036
:1040C00000F0EAFD0C48C068C468201D00F010FD37
:1040D0000A480068401E0949086009480068401EF7
:1040E0000749086000F002FE204600F05EF8044830
:1040F00000680028E4D110BDC40600203000002074
:104100002C00002070B504460D46206C70B1216C67
:10411000E0680844E0606168E068884201D3206894
:10412000E0602846226CE168FCF75AF870BD2DE982
:10413000F04104460F4615464FF00008A66B206C70
:1041400040B9206860BB606801F04CFE80460020EA
:10415000606025E07DB93946226CA068FCF740F824
:10416000216CA0680844A060D4E90110884217D3EC
:104170002068A06014E03946226CE068FCF730F853
:10418000216CE068401AE0602168E068884203D250
:10419000216C6068401AE060022D01D106B1761EE4
:1041A000701CA0634046BDE8F08110B5044694F849
:1041B000590030B9206B00F0B7FD204600F0B4FD87
:1041C0001AE094F85900012803D1204600F0ACFD14
:1041D00012E094F85900022801D1012000E00020EB
:1041E00050B900BF502080F31188BFF34F8FBFF349
:1041F0006F8F00BF00BFFEE710BD00000146084AF8
:10420000126812680AB9012200E000220A600A68F6
:1042100022B9034A1268D268106800E00020704793
:104220005C00002030B54FF44063174800F00704ED
:104230002CB1C01D20F00700134C041B1B1B0246B1
:10424000124C22600024114D6C60D018083820F008
:1042500007000F4C206000240D4D2D686C600C4D44
:104260002D682C601146441A4C60094C24680C607F
:10427000084D4C682C60084D4C682C604FF0004491
:10428000064D2C6030BD0000BC0E002074000020E4
:104290007C00002084000020800000208800002096
:1042A00000BFFFF70BFF064800680128F9D94FF05F
:1042B000805004490860BFF34F8FBFF36F8FF0E762
:1042C0002802002004ED00E02DE9F04106460D46ED
:1042D00017469846069C0DB9246000E02760E66307
:1042E00025640121204601F089F984F84C80BDE85D
:1042F000F0812DE9F05F82460F4690469B460A9E6C
:104300000C9C4FEA8801A522206BFBF77BFFA8F1EC
:104310000100216B01EB800929F0070909F0070072
:1043200008B9012000E0002050B900BF502080F300
:104330001188BFF34F8FBFF36F8F00BF00BFFEE741
:10434000002507E0795D04F134004155785D00B93E
:1043500002E06D1C102DF5D300BF00214320015554
:10436000382E00D33726E662E66400202065201D43
:1043700000F069FC04F1180000F065FC2461C6F14E
:104380003800A06164620020606584F858005A46D5
:104390005146484600F09AFB20600B9808B10B98F4
:1043A0000460BDE8F09F000010B5002407E004EBB6
:1043B00084010F4A02EB810000F038FC641C382CA9
:1043C000F5D30C4800F032FC0B4800F02FFC0B48F2
:1043D00000F02CFC0A4800F029FC0A4800F026FCFA
:1043E00004480949086004480849086010BD0000F5
:1043F00028020020880600209C060020B00600202D
:10440000C4060020D8060020240000202800002038
:1044100010B50146164800E0006803688B42FBD3E4
:104420000246436813448B4204D143684C682344DA
:10443000436001460A464B6813440468A34211D105
:104440000C4C03682468A34208D04B680468646875
:1044500023444B6003681B680B6005E0054B1B6839
:104460000B6001E003680B60884200D0016010BD62
:10447000740000207C0000202DE9F04104460D4628
:1044800016461F464FF0000865602461B5420CD8FF
:10449000F01BA169884202D34FF0010811E0211DF1
:1044A0000948006800F0D2FB0BE0BE4204D2BD42D6
:1044B00002D34FF0010804E0211D0448006800F019
:1044C000C5FB4046BDE8F081600000205C00002094
:1044D00070B5054600F0E0FBA86B08B9012400E0C8
:1044E000002400F003FC204670BD70B5054600F0C6
:1044F000D3FBA86BE96B884201D1012400E00024C2
:1045000000F0F4FB204670BD2DE9F04707460C464D
:1045100090460026206848B32046416849684160BB
:1045200000F1080142688A4202D14168496841604D
:104530004168D1F80C9000BF20464168496841604D
:1045400000F1080142688A4202D14168496841602D
:104550004168CD6806EBC60007EB800143460122A7
:10456000284600F0B3FD761C4D45E5D13046BDE848
:10457000F0870000F8B505460F4616480068C06889
:10458000C468201D00F0B4FAE06901281DD1A069BB
:1045900041192B463A462046FFF76EFFA8B100208E
:1045A00003462A4601460090204601F077FD064664
:1045B00056B900BF502080F31188BFF34F8FBFF36F
:1045C0006F8F00BF00BFFEE700BF2046616A8847CB
:1045D000F8BD00005C000020F0B587B082E00398D1
:1045E000002811DA04AE56B900BF502080F31188BC
:1045F000BFF34F8FBFF36F8F00BF00BFFEE7D6E959
:104600000020B168904700BF039800286ADB059C32
:10461000606908B9012000E0002010B9201D00F0F9
:1046200067FA02A800F0C0F8054603980A2857D296
:10463000DFE800F009050731334F0608323400BFC8
:1046400000BF00BF00BF0498A269811803462A4634
:104650002046FFF711FFE8B12046616A8847E0690C
:10466000012817D1002000900498A1694218002366
:104670001946204601F012FD074657B900BF5020E9
:1046800080F31188BFF34F8FBFF36F8F00BF00BF60
:10469000FEE700BF25E000BF23E000BF0498A06153
:1046A000A06908B1012000E0002050B900BF5020EF
:1046B00080F31188BFF34F8FBFF36F8F00BF00BF30
:1046C000FEE7A06941192B462A462046FFF7D4FE93
:1046D00007E094F82C0010B9204600F025FB00E01C
:1046E00000BF00BF002203A90448006801F022F9BE
:1046F00000287FF474AF07B0F0BD00006400002014
:10470000F8B505460C4600F03DFE684600F04CF852
:104710000646009820BB44B9B54206D801F000FC1B
:1047200031462846FFF726FF1CE03CB10E480068E2
:10473000006808B9012000E000200446A91B2246B9
:104740000A48006800F0A0FB01F0EAFB50B94FF006
:10475000805007490860BFF34F8FBFF36F8F01E0B0
:1047600001F0DEFBF8BD00006000002064000020C6
:1047700004ED00E00A490968096809B9012100E06F
:10478000002121B14FF0FF31064A116006E00449D3
:104790000968C968C868034A416811607047000029
:1047A000240000205000002070B5044601F072FA89
:1047B000054607480068854204D200F00BF8012046
:1047C000206001E00020206001480560284670BD9F
:1047D0006C0000202DE9F84332E024480068C068EE
:1047E000056822480068C068C468201D00F080F990
:1047F0002046616A8847E069012821D1A0694619ED
:10480000AE4207D966602461211D1848006800F097
:104810001DFA15E0002003462A4601460090204676
:1048200001F03CFC074657B900BF502080F31188C7
:10483000BFF34F8FBFF36F8F00BF00BFFEE700BF16
:104840000A480068006808B9012000E0002000283C
:10485000C3D00648D0F800800548006803490860C6
:104860000348C0F80080BDE8F88300005C00002029
:10487000600000200246002101E0521C491C107813
:10488000A528FAD0890888B2704700000E48006851
:10489000401C08B9012000E0002050B900BF5020A2
:1048A00080F31188BFF34F8FBFF36F8F00BF00BF3E
:1048B000FEE700BF502080F31188BFF34F8FBFF396
:1048C0006F8F00BF00BFFEE78C00002008B500BF5F
:1048D0006846FFF793FC044620460099FFF710FF57
:1048E000FFF77AFEF4E770B5044600F0D5F994F9C5
:1048F000455010E0606A08B9012000E0002038B996
:1049000004F1240001F0C0FA18B100F09DFC00E0B1
:1049100003E0681E45B2002DECDC00BFFF2084F8E8
:10492000450000F0E3F900F0B7F994F9445010E0C5
:10493000206908B9012000E0002048B904F1100006
:1049400001F0A2FA08B100F07FFC681E45B200E059
:1049500001E0002DECDC00BFFF2084F8440000F0F3
:10496000C5F970BD70B505460E4631462846FBF7C1
:1049700074FC2846FBF76AFC044602E02020285518
:10498000641C0F2CFAD300202855281970BD000094
:104990002DE9F04104464FF0000800F0F3FC4648D2
:1049A000006808B9FFF73EFC444800682040002832
:1049B0006BD1D4B1083404F00700B0B104F00700A3
:1049C000C0F10800044404F0070008B9012000E029
:1049D000002050B900BF502080F31188BFF34F8FE3
:1049E000BFF36F8F00BF00BFFEE7002C4DD03448EF
:1049F0000068844249D8334E3046056801E02E46AF
:104A00002D686868A04202D228680028F7D12A4899
:104A10000068854239D0306800F1080828683060A5
:104A20006868001B102819D92F1907F0070008B96A
:104A3000012000E0002050B900BF502080F3118811
:104A4000BFF34F8FBFF36F8F00BF00BFFEE76868F3
:104A5000001B78606C603846FFF7DAFC184968681C
:104A60000968081A16490860084600681649096866
:104A7000884203D212480068134908600F496868E9
:104A80000968084368600020286001F049FA08F0CE
:104A9000070008B9012000E0002050B900BF5020F5
:104AA00080F31188BFF34F8FBFF36F8F00BF00BF3C
:104AB000FEE74046BDE8F0817C0000208800002031
:104AC000800000207400002084000020001F4FF0B0
:104AD00080730360001F21F001030360001F034B7C
:104AE0000360143802602038704700008D480008C9
:104AF00001460A69D1E901309860D1E901035860A3
:104B00005068884201D188685060002008611068B0
:104B1000401E106010687047014800687047000030
:104B2000300000202DE9F041044614B90648006821
:104B300000E0204607463D6B2846FFF79BFE0646F1
:104B40003046BDE8F0810000200000202DE9F04152
:104B50000546884616460024382700F013FC2148F5
:104B60000068804539D300BF7F1E07EB87021E4BCC
:104B700003EB820104EBC40205EB82000122FFF784
:104B8000C3FC0444002FEFD104EBC40105EB81000A
:104B9000022216490968FFF7B7FC044404EBC4017C
:104BA00005EB8100022212490968FFF7ADFC0444BD
:104BB00004EBC40105EB810004220E49FFF7A4FCBD
:104BC000044404EBC40105EB810003220A49FFF70A
:104BD0009BFC04440EB10020306001F0A1F9204696
:104BE000BDE8F081300000202802002024000020D1
:104BF00028000020C4060020D8060020034B0360D4
:104C0000034B0B60802313607047000004080020F2
:104C100060080020034B0360034B0B604FF480736C
:104C200013607047600A0020BC0A002000F10801F0
:104C300041604FF0FF31816000F10801C160016106
:104C400000210160704700210161704710B50246E4
:104C50000B685C1C0CB9106907E002F1080000E069
:104C60004068446824689C42FAD944684C604C68A7
:104C7000A160886041600A611468641C146010BD02
:104C800042684A6093688B609368596091600861DC
:104C900003685B1C0360704700BF502080F31188DD
:104CA000BFF34F8FBFF36F8F00BF0E480068401CEB
:104CB0000C49086008460068012812D10A480068BB
:104CC000C0B208B9012000E0002050B900BF502058
:104CD00080F31188BFF34F8FBFF36F8F00BF00BF0A
:104CE000FEE770478C00002004ED00E00D480068EE
:104CF00050B900BF502080F31188BFF34F8FBFF32E
:104D00006F8F00BF00BFFEE706480068401E0549E0
:104D100008600846006820B9002080F3118800BFB1
:104D200000BF70478C00002070B506463546002E47
:104D30003FD0083D2C461F4960680968084008B10B
:104D4000012000E0002050B900BF502080F31188FE
:104D5000BFF34F8FBFF36F8F00BF00BFFEE7206828
:104D600008B9012000E0002050B900BF502080F3B6
:104D70001188BFF34F8FBFF36F8F00BF00BFFEE7F7
:104D80000C4960680968084098B1206888B90949E9
:104D9000606809688843606000F0F4FA064960685A
:104DA00009680844044908602046FFF731FB01F018
:104DB000B7F870BD880000208000002000204FF070
:104DC000E02108618861064800684FF47A71B0FB01
:104DD000F1F0401E4FF0E021486107200861704764
:104DE0001C00002070B5FBF7D5F90446102C16D333
:104DF00004F1E02090F8F05315480078854201DB7B
:104E0000012000E0002050B900BF502080F311883D
:104E1000BFF34F8FBFF36F8F00BF00BFFEE70D489A
:104E2000006800F4E0600C490968884201D801205C
:104E300000E0002050B900BF502080F31188BFF37C
:104E40004F8FBFF36F8F00BF00BFFEE770BD000044
:104E5000900000200CED00E09400002002460020AD
:104E60000BE0084B53F8303033B9064B43F83010A1
:104E700003EBC0035A6002E0401C0828F1D300BFD6
:104E800070470000E80100202DE9F04105460E467C
:104E900017462C46FFF700FF94F94400401C10B958
:104EA000002084F8440094F94500401C10B900200B
:104EB00084F84500FFF71AFFA06B28B93A4631463F
:104EC00004F1240000F0E2F92046FFF70CFDBDE8F4
:104ED000F081000070B504460025D4B11248006886
:104EE00008B9012000E0002050B900BF502080F335
:104EF0001188BFF34F8FBFF36F8F00BF00BFFEE776
:104F000000F040FA00212046FFF704F801F008F80D
:104F100005463DB94FF0805004490860BFF34F8FFC
:104F2000BFF36F8F70BD00005800002004ED00E05B
:104F30002DE9F04704460F464FF0000954B900BF71
:104F4000502080F31188BFF34F8FBFF36F8F00BFE6
:104F500000BFFEE70FB1012000E0002050B900BF04
:104F6000502080F31188BFF34F8FBFF36F8F00BFC6
:104F700000BFFEE72048006808B9012000E00020DB
:104F800050B900BF502080F31188BFF34F8FBFF39B
:104F90006F8F00BF00BFFEE700F0F4F91748066806
:104FA0002068C5192068B04207D92068A8420BD9EB
:104FB000B54209D94FF0010906E02068A84201D89E
:104FC000B54201D94FF001092560B9F1000F03D0B6
:104FD000A81B0021FEF79EFF00F0A2FF8046B8F15B
:104FE000000F07D14FF0805005490860BFF34F8F85
:104FF000BFF36F8FBDE8F087580000203400002019
:1050000004ED00E070B50546FFF746FE15B92748E8
:10501000006800E028460446201DFFF769FDA06AED
:1050200018B104F11800FFF763FD21480068401C27
:105030001F4908601D480068844209D1211D1D4890
:10504000FFF71EFE1C480068401C1B49086009E071
:105050001A480068401E194908602046FFF7A5F865
:10506000FFF788FBFFF742FE15480068E8B10F48DC
:105070000068844219D11348006808B9012000E093
:10508000002050B900BF502080F31188BFF34F8F2C
:10509000BFF36F8F00BF00BFFEE74FF080500A499B
:1050A0000860BFF34F8FBFF36F8F70BD20000020EB
:1050B0004C000020C40600202C00002030000020FE
:1050C0003C0000205800002004ED00E02DE9F041F4
:1050D00007460C4690461E4617B91C48006800E07B
:1050E00038460546256005F134006060E86A2061B5
:1050F000286BE061686CA060E86C60610020A061D2
:10510000052E12D011480068854202D1002020737C
:105110000FE02673032E0CD100F034F9A86A08B111
:105120000220207300F0FCFE03E02846FDF7B6FFE6
:105130002073B8F1000F04D0286BFFF79BFB20848D
:1051400001E000202084BDE8F08100002000002064
:10515000034909680160034909684160704700001C
:1051600048000020340000207FB50546002028704C
:105170003048006803902F49096801EBC10188009D
:10518000FFF706FC0446002C53D00022204603996A
:10519000FFF7DCFC03900020029043E0029800EB54
:1051A000C00004EB8000007B05280ED2DFE800F091
:1051B000030507090B00582609E0522607E042269E
:1051C00005E0532603E0442601E0002600BF00BFAF
:1051D000029800EBC00004EB800041682846FFF70E
:1051E000C1FB0546029800EBC00004EB800080681C
:1051F000029901EBC10104EB8101098CCDE900109A
:10520000029800EBC00004EB800032460AA103695B
:105210002846FDF78BFA2846FBF718F80544029854
:10522000401C0290DDE902018842B7D32046FFF717
:105230007BFD7FBD30000020092563092575092508
:10524000750925750D0A00000120014908607047A5
:105250004400002070B504460D4654B900BF5020EC
:1052600080F31188BFF34F8FBFF36F8F00BF00BF74
:10527000FEE70548016818312046FFF7E7FC0121E9
:105280002846FEF747FE70BD2000002070B5054699
:105290000E46144655B900BF502080F31188BFF365
:1052A0004F8FBFF36F8F00BF00BFFEE70648016856
:1052B00018312846FFF7E4FC0CB14FF0FF362146C9
:1052C0003046FEF727FE70BD2000002010B586B0E6
:1052D00000200590049003AA04A905A8FFF78EFCFE
:1052E0000022DDE904101346CDE9002102901EA141
:1052F0001F48039A00F04AFC1E49086008460068EF
:1053000008B1012400E00024012C02D100F08AFE43
:105310000446012C15D100BF502080F31188BFF343
:105320004F8FBFF36F8F00BF4FF0FF3012490860FF
:1053300001201249086000201149086000F072F84D
:1053400010E0601C08B1012000E0002050B900BF4F
:10535000502080F31188BFF34F8FBFF36F8F00BFD2
:1053600000BFFEE706B010BD49444C4500000000F8
:10537000A142000854000020500000203C00002002
:105380003400002002480068401C01490860704752
:10539000580000201E48006818B101201D4908600F
:1053A00034E000201B4908601B4801680CE051B93B
:1053B00000BF502080F31188BFF34F8FBFF36F8F72
:1053C00000BF00BFFEE7491E01EB8100134A52F8FF
:1053D000200008B9012000E000200028E7D101EBFF
:1053E00081020E4B03EB820042685268426000F17A
:1053F00008024368934202D14268526842604268A0
:10540000D268074B1A600448016000BF7047000073
:10541000580000204400002038000020280200200E
:10542000200000201CB53849084600780190FF2074
:105430000A4610700846007800909DF8000000F0C1
:10544000F0009DF80020904201D1012000E00020F2
:1054500050B900BF502080F31188BFF34F8FBFF3C6
:105460006F8F00BF00BFFEE79DF8000000F0500006
:10547000264A10700720264A106009E02448006878
:10548000401E234A10609DF800004006000E009068
:105490009DF8000000F080008028EFD01C480068D4
:1054A000C0F10700042801D1012000E0002050B91C
:1054B00000BF502080F31188BFF34F8FBFF36F8F71
:1054C00000BF00BFFEE7124800680002104A1060EB
:1054D0001046008800F4E06010600B4A01981070DC
:1054E0000C48006840F470000A49086008460068EB
:1054F00040F070400860FFF761FC0020064908603A
:10550000FAF712FE00201CBD00E400E0900000202D
:105510009400002020ED00E08C0000202DE9F843ED
:1055200080460E4617461D46DDF82090B8F1000F64
:1055300001D0012000E0002050B900BF502080F3CE
:105540001188BFF34F8FBFF36F8F00BF00BFFEE71F
:105550000DB1012000E0002050B900BF502080F3C1
:105560001188BFF34F8FBFF36F8F00BF00BFFEE7FF
:1055700007B10EB1012000E0002050B900BF50205B
:1055800080F31188BFF34F8FBFF36F8F00BF00BF51
:10559000FEE707B90EB9012000E0002050B900BFB6
:1055A000502080F31188BFF34F8FBFF36F8F00BF80
:1055B00000BFFEE7502000900098502801D1012044
:1055C00000E0002050B900BF502080F31188BFF3E5
:1055D0004F8FBFF36F8F00BF00BFFEE72C464CB16B
:1055E000012084F846004B463A4631464046009436
:1055F000FEF76AFE2046BDE8F883000070B5054658
:105600000E462C4654B900BF502080F31188BFF3DA
:105610004F8FBFF36F8F00BF00BFFEE7FFF73CFB6C
:10562000D4E90F12206801FB020060600020A06333
:105630002068A060E06B401E226C216800FB021015
:10564000E060FF2084F8440084F845009EB920699A
:1056500008B9012000E00020A8B904F1100000F012
:1056600013FC80B14FF0805009490860BFF34F8FA1
:10567000BFF36F8F07E004F11000FFF7D7FA04F1D2
:105680002400FFF7D3FAFFF731FB012070BD0000C3
:1056900004ED00E02DE9FF4383B0064688461D4631
:1056A0004FF00009344654B900BF502080F31188F0
:1056B000BFF34F8FBFF36F8F00BF00BFFEE7B8F19E
:1056C000000F01D1206C08B9012000E0002050B982
:1056D00000BF502080F31188BFF34F8FBFF36F8F4F
:1056E00000BF00BFFEE7022D02D1E06B012801D10F
:1056F000012000E0002050B900BF502080F3118845
:10570000BFF34F8FBFF36F8F00BF00BFFEE700F006
:10571000B1FA08B9059808B9012000E0002050B995
:1057200000BF502080F31188BFF34F8FBFF36F8FFE
:1057300000BF00BFFEE700BFFFF7AEFAA06BE16B52
:10574000884201D3022D28D12A4641462046FEF741
:10575000EEFC0746606A08B9012000E0002068B945
:1057600004F1240000F090FB88B14FF080503249E2
:105770000860BFF34F8FBFF36F8F08E03FB14FF06A
:1057800080502D490860BFF34F8FBFF36F8FFFF735
:10579000ADFA012007B0BDE8F083059818B9FFF70E
:1057A000A5FA0020F6E7B9F1000F04D101A8FFF730
:1057B000CFFC4FF00109FFF799FAFFF7E3FDFFF780
:1057C0006BFA94F94400401C10B9002084F844009E
:1057D00094F94500401C10B9002084F84500FFF7FB
:1057E00085FA05A901A800F059F9F0B92046FEF79D
:1057F0007CFEA0B104F110000599FFF72BFD2046B7
:10580000FFF771F800F08CFB002895D14FF0805025
:1058100009490860BFF34F8FBFF36F8F8CE72046B5
:10582000FFF761F800F07CFB86E72046FFF75BF8A6
:1058300000F076FB0020ADE704ED00E02DE9F05F1D
:1058400007468A4690461E463C4654B900BF502043
:1058500080F31188BFF34F8FBFF36F8F00BF00BF7E
:10586000FEE7BAF1000F01D1206C08B9012000E079
:10587000002050B900BF502080F31188BFF34F8F34
:10588000BFF36F8F00BF00BFFEE7022E02D1E06BB7
:10589000012801D1012000E0002050B900BF5020B4
:1058A00080F31188BFF34F8FBFF36F8F00BF00BF2E
:1058B000FEE7FFF797FA00BF5021EFF3118081F365
:1058C0001188BFF34F8FBFF36F8F00BF0546A06BEA
:1058D000E16B884201D3022E23D194F945B03246C0
:1058E00051462046FEF723FC0BF1010088B9606A9F
:1058F00008B9012000E0002080B904F1240000F084
:10590000C3FA58B1B8F1000F08D00120C8F8000060
:1059100004E00BF1010040B284F845004FF00109AA
:1059200001E04FF0000900BF85F3118800BF484631
:10593000BDE8F09F2DE9F74183B005460E464FF0D4
:1059400000082C4654B900BF502080F31188BFF3E3
:105950004F8FBFF36F8F00BF00BFFEE70EB9206C03
:1059600008B9012000E0002050B900BF502080F3AA
:105970001188BFF34F8FBFF36F8F00BF00BFFEE7EB
:1059800000F078F908B9059808B9012000E0002076
:1059900050B900BF502080F31188BFF34F8FBFF381
:1059A0006F8F00BF00BFFEE700BFFFF775F9A76B61
:1059B000F7B131462046FEF7A5FB781EA0632069AB
:1059C00008B9012000E0002060B904F1100000F0E7
:1059D0005BFA38B14FF080502F490860BFF34F8F0A
:1059E000BFF36F8FFFF782F9012006B0BDE8F081A9
:1059F000059818B9FFF77AF90020F6E7B8F1000F1B
:105A000004D101A8FFF7A4FB4FF00108FFF76EF9DE
:105A1000FFF7B8FCFFF740F994F94400401C10B9B7
:105A2000002084F8440094F94500401C10B900207F
:105A300084F84500FFF75AF905A901A800F02EF8EF
:105A4000F0B92046FEF744FDA0B104F12400059909
:105A5000FFF700FC2046FEF746FF00F061FA002841
:105A6000A3D14FF080500C490860BFF34F8FBFF3B4
:105A70006F8F9AE72046FEF736FF00F051FA94E761
:105A80002046FEF730FF00F04BFA2046FEF720FDDF
:105A900000288AD00020A8E704ED00E070B5054694
:105AA0000C4655B900BF502080F31188BFF34F8FCB
:105AB000BFF36F8F00BF00BFFEE754B900BF502097
:105AC00080F31188BFF34F8FBFF36F8F00BF00BF0C
:105AD000FEE7FFF7E1F8124802686868131A2068C9
